{
  "_format": "hh-sol-artifact-1",
  "contractName": "MyGovToken",
  "sourceName": "contracts/MyGovToken.sol",
  "abi": [
    {
      "inputs": [
        {
          "internalType": "uint256",
          "name": "tokensupply",
          "type": "uint256"
        },
        {
          "internalType": "address",
          "name": "usdStableCoinAddress",
          "type": "address"
        }
      ],
      "stateMutability": "nonpayable",
      "type": "constructor"
    },
    {
      "inputs": [
        {
          "internalType": "address",
          "name": "spender",
          "type": "address"
        },
        {
          "internalType": "uint256",
          "name": "allowance",
          "type": "uint256"
        },
        {
          "internalType": "uint256",
          "name": "needed",
          "type": "uint256"
        }
      ],
      "name": "ERC20InsufficientAllowance",
      "type": "error"
    },
    {
      "inputs": [
        {
          "internalType": "address",
          "name": "sender",
          "type": "address"
        },
        {
          "internalType": "uint256",
          "name": "balance",
          "type": "uint256"
        },
        {
          "internalType": "uint256",
          "name": "needed",
          "type": "uint256"
        }
      ],
      "name": "ERC20InsufficientBalance",
      "type": "error"
    },
    {
      "inputs": [
        {
          "internalType": "address",
          "name": "approver",
          "type": "address"
        }
      ],
      "name": "ERC20InvalidApprover",
      "type": "error"
    },
    {
      "inputs": [
        {
          "internalType": "address",
          "name": "receiver",
          "type": "address"
        }
      ],
      "name": "ERC20InvalidReceiver",
      "type": "error"
    },
    {
      "inputs": [
        {
          "internalType": "address",
          "name": "sender",
          "type": "address"
        }
      ],
      "name": "ERC20InvalidSender",
      "type": "error"
    },
    {
      "inputs": [
        {
          "internalType": "address",
          "name": "spender",
          "type": "address"
        }
      ],
      "name": "ERC20InvalidSpender",
      "type": "error"
    },
    {
      "anonymous": false,
      "inputs": [
        {
          "indexed": true,
          "internalType": "address",
          "name": "owner",
          "type": "address"
        },
        {
          "indexed": true,
          "internalType": "address",
          "name": "spender",
          "type": "address"
        },
        {
          "indexed": false,
          "internalType": "uint256",
          "name": "value",
          "type": "uint256"
        }
      ],
      "name": "Approval",
      "type": "event"
    },
    {
      "anonymous": false,
      "inputs": [
        {
          "indexed": true,
          "internalType": "address",
          "name": "from",
          "type": "address"
        },
        {
          "indexed": true,
          "internalType": "address",
          "name": "to",
          "type": "address"
        },
        {
          "indexed": false,
          "internalType": "uint256",
          "name": "value",
          "type": "uint256"
        }
      ],
      "name": "Transfer",
      "type": "event"
    },
    {
      "inputs": [
        {
          "internalType": "address",
          "name": "owner",
          "type": "address"
        },
        {
          "internalType": "address",
          "name": "spender",
          "type": "address"
        }
      ],
      "name": "allowance",
      "outputs": [
        {
          "internalType": "uint256",
          "name": "",
          "type": "uint256"
        }
      ],
      "stateMutability": "view",
      "type": "function"
    },
    {
      "inputs": [
        {
          "internalType": "address",
          "name": "spender",
          "type": "address"
        },
        {
          "internalType": "uint256",
          "name": "value",
          "type": "uint256"
        }
      ],
      "name": "approve",
      "outputs": [
        {
          "internalType": "bool",
          "name": "",
          "type": "bool"
        }
      ],
      "stateMutability": "nonpayable",
      "type": "function"
    },
    {
      "inputs": [
        {
          "internalType": "address",
          "name": "account",
          "type": "address"
        }
      ],
      "name": "balanceOf",
      "outputs": [
        {
          "internalType": "uint256",
          "name": "",
          "type": "uint256"
        }
      ],
      "stateMutability": "view",
      "type": "function"
    },
    {
      "inputs": [],
      "name": "decimals",
      "outputs": [
        {
          "internalType": "uint8",
          "name": "",
          "type": "uint8"
        }
      ],
      "stateMutability": "view",
      "type": "function"
    },
    {
      "inputs": [
        {
          "internalType": "uint256",
          "name": "amount",
          "type": "uint256"
        }
      ],
      "name": "donateMyGovToken",
      "outputs": [],
      "stateMutability": "nonpayable",
      "type": "function"
    },
    {
      "inputs": [
        {
          "internalType": "uint256",
          "name": "amount",
          "type": "uint256"
        }
      ],
      "name": "donateUSD",
      "outputs": [],
      "stateMutability": "nonpayable",
      "type": "function"
    },
    {
      "inputs": [],
      "name": "faucet",
      "outputs": [],
      "stateMutability": "nonpayable",
      "type": "function"
    },
    {
      "inputs": [
        {
          "internalType": "uint256",
          "name": "projectid",
          "type": "uint256"
        }
      ],
      "name": "getIsProjectFunded",
      "outputs": [
        {
          "internalType": "bool",
          "name": "funded",
          "type": "bool"
        }
      ],
      "stateMutability": "view",
      "type": "function"
    },
    {
      "inputs": [],
      "name": "getNoOfFundedProjects",
      "outputs": [
        {
          "internalType": "uint256",
          "name": "numfunded",
          "type": "uint256"
        }
      ],
      "stateMutability": "view",
      "type": "function"
    },
    {
      "inputs": [],
      "name": "getNoOfProjectProposals",
      "outputs": [
        {
          "internalType": "uint256",
          "name": "numproposals",
          "type": "uint256"
        }
      ],
      "stateMutability": "view",
      "type": "function"
    },
    {
      "inputs": [],
      "name": "getNoOfSurveys",
      "outputs": [
        {
          "internalType": "uint256",
          "name": "numsurveys",
          "type": "uint256"
        }
      ],
      "stateMutability": "view",
      "type": "function"
    },
    {
      "inputs": [
        {
          "internalType": "uint256",
          "name": "activityid",
          "type": "uint256"
        }
      ],
      "name": "getProjectInfo",
      "outputs": [
        {
          "internalType": "string",
          "name": "ipfshash",
          "type": "string"
        },
        {
          "internalType": "uint256",
          "name": "votedeadline",
          "type": "uint256"
        },
        {
          "internalType": "uint256[]",
          "name": "paymentamounts",
          "type": "uint256[]"
        },
        {
          "internalType": "uint256[]",
          "name": "payschedule",
          "type": "uint256[]"
        }
      ],
      "stateMutability": "view",
      "type": "function"
    },
    {
      "inputs": [
        {
          "internalType": "uint256",
          "name": "projectid",
          "type": "uint256"
        }
      ],
      "name": "getProjectOwner",
      "outputs": [
        {
          "internalType": "address",
          "name": "projectowner",
          "type": "address"
        }
      ],
      "stateMutability": "view",
      "type": "function"
    },
    {
      "inputs": [
        {
          "internalType": "uint256",
          "name": "surveyid",
          "type": "uint256"
        }
      ],
      "name": "getSurveyInfo",
      "outputs": [
        {
          "internalType": "string",
          "name": "ipfshash",
          "type": "string"
        },
        {
          "internalType": "uint256",
          "name": "surveydeadline",
          "type": "uint256"
        },
        {
          "internalType": "uint256",
          "name": "numchoices",
          "type": "uint256"
        },
        {
          "internalType": "uint256",
          "name": "atmostchoice",
          "type": "uint256"
        }
      ],
      "stateMutability": "view",
      "type": "function"
    },
    {
      "inputs": [
        {
          "internalType": "uint256",
          "name": "surveyid",
          "type": "uint256"
        }
      ],
      "name": "getSurveyOwner",
      "outputs": [
        {
          "internalType": "address",
          "name": "surveyowner",
          "type": "address"
        }
      ],
      "stateMutability": "view",
      "type": "function"
    },
    {
      "inputs": [
        {
          "internalType": "uint256",
          "name": "surveyid",
          "type": "uint256"
        }
      ],
      "name": "getSurveyResults",
      "outputs": [
        {
          "internalType": "uint256",
          "name": "numtaken",
          "type": "uint256"
        },
        {
          "internalType": "uint256[]",
          "name": "results",
          "type": "uint256[]"
        }
      ],
      "stateMutability": "view",
      "type": "function"
    },
    {
      "inputs": [],
      "name": "name",
      "outputs": [
        {
          "internalType": "string",
          "name": "",
          "type": "string"
        }
      ],
      "stateMutability": "view",
      "type": "function"
    },
    {
      "inputs": [
        {
          "internalType": "uint256",
          "name": "",
          "type": "uint256"
        }
      ],
      "name": "proposals",
      "outputs": [
        {
          "internalType": "address",
          "name": "projectOwner",
          "type": "address"
        },
        {
          "internalType": "string",
          "name": "ipfsHash",
          "type": "string"
        },
        {
          "internalType": "uint256",
          "name": "deadline",
          "type": "uint256"
        },
        {
          "internalType": "bool",
          "name": "isFunded",
          "type": "bool"
        },
        {
          "internalType": "uint256",
          "name": "vote",
          "type": "uint256"
        }
      ],
      "stateMutability": "view",
      "type": "function"
    },
    {
      "inputs": [
        {
          "internalType": "string",
          "name": "ipfshash",
          "type": "string"
        },
        {
          "internalType": "uint256",
          "name": "votedeadline",
          "type": "uint256"
        },
        {
          "internalType": "uint256[]",
          "name": "paymentamounts",
          "type": "uint256[]"
        },
        {
          "internalType": "uint256[]",
          "name": "payschedule",
          "type": "uint256[]"
        }
      ],
      "name": "submitProjectProposal",
      "outputs": [
        {
          "internalType": "uint256",
          "name": "projectid",
          "type": "uint256"
        }
      ],
      "stateMutability": "nonpayable",
      "type": "function"
    },
    {
      "inputs": [
        {
          "internalType": "string",
          "name": "ipfshash",
          "type": "string"
        },
        {
          "internalType": "uint256",
          "name": "surveydeadline",
          "type": "uint256"
        },
        {
          "internalType": "uint256",
          "name": "numchoices",
          "type": "uint256"
        },
        {
          "internalType": "uint256",
          "name": "atmostchoice",
          "type": "uint256"
        }
      ],
      "name": "submitSurvey",
      "outputs": [
        {
          "internalType": "uint256",
          "name": "surveyid",
          "type": "uint256"
        }
      ],
      "stateMutability": "nonpayable",
      "type": "function"
    },
    {
      "inputs": [
        {
          "internalType": "uint256",
          "name": "",
          "type": "uint256"
        }
      ],
      "name": "surveys",
      "outputs": [
        {
          "internalType": "string",
          "name": "ipfsHash",
          "type": "string"
        },
        {
          "internalType": "address",
          "name": "owner",
          "type": "address"
        },
        {
          "internalType": "uint256",
          "name": "deadline",
          "type": "uint256"
        },
        {
          "internalType": "uint256",
          "name": "numChoices",
          "type": "uint256"
        },
        {
          "internalType": "uint256",
          "name": "atMostChoice",
          "type": "uint256"
        },
        {
          "internalType": "uint256",
          "name": "numTaken",
          "type": "uint256"
        }
      ],
      "stateMutability": "view",
      "type": "function"
    },
    {
      "inputs": [],
      "name": "symbol",
      "outputs": [
        {
          "internalType": "string",
          "name": "",
          "type": "string"
        }
      ],
      "stateMutability": "view",
      "type": "function"
    },
    {
      "inputs": [
        {
          "internalType": "uint256",
          "name": "surveyid",
          "type": "uint256"
        },
        {
          "internalType": "uint256[]",
          "name": "choices",
          "type": "uint256[]"
        }
      ],
      "name": "takeSurvey",
      "outputs": [],
      "stateMutability": "nonpayable",
      "type": "function"
    },
    {
      "inputs": [],
      "name": "totalSupply",
      "outputs": [
        {
          "internalType": "uint256",
          "name": "",
          "type": "uint256"
        }
      ],
      "stateMutability": "view",
      "type": "function"
    },
    {
      "inputs": [
        {
          "internalType": "address",
          "name": "to",
          "type": "address"
        },
        {
          "internalType": "uint256",
          "name": "value",
          "type": "uint256"
        }
      ],
      "name": "transfer",
      "outputs": [
        {
          "internalType": "bool",
          "name": "",
          "type": "bool"
        }
      ],
      "stateMutability": "nonpayable",
      "type": "function"
    },
    {
      "inputs": [
        {
          "internalType": "address",
          "name": "from",
          "type": "address"
        },
        {
          "internalType": "address",
          "name": "to",
          "type": "address"
        },
        {
          "internalType": "uint256",
          "name": "value",
          "type": "uint256"
        }
      ],
      "name": "transferFrom",
      "outputs": [
        {
          "internalType": "bool",
          "name": "",
          "type": "bool"
        }
      ],
      "stateMutability": "nonpayable",
      "type": "function"
    },
    {
      "inputs": [
        {
          "internalType": "address",
          "name": "",
          "type": "address"
        }
      ],
      "name": "users",
      "outputs": [
        {
          "internalType": "address",
          "name": "userAddress",
          "type": "address"
        },
        {
          "internalType": "uint256",
          "name": "usdStableCoinBalance",
          "type": "uint256"
        },
        {
          "internalType": "bool",
          "name": "fauceted",
          "type": "bool"
        }
      ],
      "stateMutability": "view",
      "type": "function"
    }
  ],
  "bytecode": "0x60806040526005805560026006556032600755600560085560006009556000600b553480156200002e57600080fd5b50604051620041cb380380620041cb8339818101604052810190620000549190620004a3565b6040518060400160405280600b81526020017f4d79476f7620546f6b656e0000000000000000000000000000000000000000008152506040518060400160405280600581526020017f4d59474f560000000000000000000000000000000000000000000000000000008152508160039081620000d191906200075a565b508060049081620000e391906200075a565b50505080600a60006101000a81548173ffffffffffffffffffffffffffffffffffffffff021916908373ffffffffffffffffffffffffffffffffffffffff1602179055506200013930836200014160201b60201c565b505062000944565b600073ffffffffffffffffffffffffffffffffffffffff168273ffffffffffffffffffffffffffffffffffffffff1603620001b65760006040517fec442f05000000000000000000000000000000000000000000000000000000008152600401620001ad919062000852565b60405180910390fd5b620001ca60008383620001ce60201b60201c565b5050565b600073ffffffffffffffffffffffffffffffffffffffff168373ffffffffffffffffffffffffffffffffffffffff1603620002245780600260008282546200021791906200089e565b92505081905550620002fa565b60008060008573ffffffffffffffffffffffffffffffffffffffff1673ffffffffffffffffffffffffffffffffffffffff16815260200190815260200160002054905081811015620002b3578381836040517fe450d38c000000000000000000000000000000000000000000000000000000008152600401620002aa93929190620008ea565b60405180910390fd5b8181036000808673ffffffffffffffffffffffffffffffffffffffff1673ffffffffffffffffffffffffffffffffffffffff16815260200190815260200160002081905550505b600073ffffffffffffffffffffffffffffffffffffffff168273ffffffffffffffffffffffffffffffffffffffff160362000345578060026000828254039250508190555062000392565b806000808473ffffffffffffffffffffffffffffffffffffffff1673ffffffffffffffffffffffffffffffffffffffff168152602001908152602001600020600082825401925050819055505b8173ffffffffffffffffffffffffffffffffffffffff168373ffffffffffffffffffffffffffffffffffffffff167fddf252ad1be2c89b69c2b068fc378daa952ba7f163c4a11628f55a4df523b3ef83604051620003f1919062000927565b60405180910390a3505050565b600080fd5b6000819050919050565b620004188162000403565b81146200042457600080fd5b50565b60008151905062000438816200040d565b92915050565b600073ffffffffffffffffffffffffffffffffffffffff82169050919050565b60006200046b826200043e565b9050919050565b6200047d816200045e565b81146200048957600080fd5b50565b6000815190506200049d8162000472565b92915050565b60008060408385031215620004bd57620004bc620003fe565b5b6000620004cd8582860162000427565b9250506020620004e0858286016200048c565b9150509250929050565b600081519050919050565b7f4e487b7100000000000000000000000000000000000000000000000000000000600052604160045260246000fd5b7f4e487b7100000000000000000000000000000000000000000000000000000000600052602260045260246000fd5b600060028204905060018216806200056c57607f821691505b60208210810362000582576200058162000524565b5b50919050565b60008190508160005260206000209050919050565b60006020601f8301049050919050565b600082821b905092915050565b600060088302620005ec7fffffffffffffffffffffffffffffffffffffffffffffffffffffffffffffffff82620005ad565b620005f88683620005ad565b95508019841693508086168417925050509392505050565b6000819050919050565b60006200063b620006356200062f8462000403565b62000610565b62000403565b9050919050565b6000819050919050565b62000657836200061a565b6200066f620006668262000642565b848454620005ba565b825550505050565b600090565b6200068662000677565b620006938184846200064c565b505050565b5b81811015620006bb57620006af6000826200067c565b60018101905062000699565b5050565b601f8211156200070a57620006d48162000588565b620006df846200059d565b81016020851015620006ef578190505b62000707620006fe856200059d565b83018262000698565b50505b505050565b600082821c905092915050565b60006200072f600019846008026200070f565b1980831691505092915050565b60006200074a83836200071c565b9150826002028217905092915050565b6200076582620004ea565b67ffffffffffffffff811115620007815762000780620004f5565b5b6200078d825462000553565b6200079a828285620006bf565b600060209050601f831160018114620007d25760008415620007bd578287015190505b620007c985826200073c565b86555062000839565b601f198416620007e28662000588565b60005b828110156200080c57848901518255600182019150602085019450602081019050620007e5565b868310156200082c578489015162000828601f8916826200071c565b8355505b6001600288020188555050505b505050505050565b6200084c816200045e565b82525050565b600060208201905062000869600083018462000841565b92915050565b7f4e487b7100000000000000000000000000000000000000000000000000000000600052601160045260246000fd5b6000620008ab8262000403565b9150620008b88362000403565b9250828201905080821115620008d357620008d26200086f565b5b92915050565b620008e48162000403565b82525050565b600060608201905062000901600083018662000841565b620009106020830185620008d9565b6200091f6040830184620008d9565b949350505050565b60006020820190506200093e6000830184620008d9565b92915050565b61387780620009546000396000f3fe608060405234801561001057600080fd5b50600436106101a95760003560e01c80637c405164116100f9578063a9059cbb11610097578063dd62ed3e11610071578063dd62ed3e14610553578063de5f72fd14610583578063ef269ae31461058d578063fabf5968146105bd576101a9565b8063a9059cbb146104e9578063bf50556d14610519578063d915902e14610537576101a9565b806392256aec116100d357806392256aec1461043957806395d89b4114610469578063a5e898e114610487578063a87430ba146104b7576101a9565b80637c405164146103a457806386e68b90146103d4578063875b507614610409576101a9565b80632e8f3413116101665780635d801b37116101405780635d801b3714610309578063702798df1461032757806370a082311461034357806370a56c7314610373576101a9565b80632e8f34131461029c578063313ce567146102cf57806339c94d2d146102ed576101a9565b8063013cf08b146101ae57806306fdde03146101e2578063095ea7b31461020057806318160ddd1461023057806323b872dd1461024e57806323fd498b1461027e575b600080fd5b6101c860048036038101906101c3919061236b565b6105f0565b6040516101d9959493929190612493565b60405180910390f35b6101ea6106eb565b6040516101f791906124ed565b60405180910390f35b61021a6004803603810190610215919061253b565b61077d565b604051610227919061257b565b60405180910390f35b6102386107a0565b6040516102459190612596565b60405180910390f35b610268600480360381019061026391906125b1565b6107aa565b604051610275919061257b565b60405180910390f35b6102866107d9565b6040516102939190612596565b60405180910390f35b6102b660048036038101906102b1919061236b565b6107e6565b6040516102c69493929190612604565b60405180910390f35b6102d761091c565b6040516102e4919061266c565b60405180910390f35b6103076004803603810190610302919061236b565b610925565b005b6103116109b6565b60405161031e9190612596565b60405180910390f35b610341600480360381019061033c91906127cf565b6109c3565b005b61035d6004803603810190610358919061282b565b610c46565b60405161036a9190612596565b60405180910390f35b61038d6004803603810190610388919061236b565b610c8e565b60405161039b929190612916565b60405180910390f35b6103be60048036038101906103b9919061236b565b610d35565b6040516103cb919061257b565b60405180910390f35b6103ee60048036038101906103e9919061236b565b610d71565b60405161040096959493929190612946565b60405180910390f35b610423600480360381019061041e919061236b565b610e65565b60405161043091906129ae565b60405180910390f35b610453600480360381019061044e919061236b565b610eb4565b60405161046091906129ae565b60405180910390f35b610471610f03565b60405161047e91906124ed565b60405180910390f35b6104a1600480360381019061049c9190612a7e565b610f95565b6040516104ae9190612596565b60405180910390f35b6104d160048036038101906104cc919061282b565b6112ef565b6040516104e093929190612b39565b60405180910390f35b61050360048036038101906104fe919061253b565b611346565b604051610510919061257b565b60405180910390f35b610521611369565b60405161052e9190612596565b60405180910390f35b610551600480360381019061054c919061236b565b611373565b005b61056d60048036038101906105689190612b70565b611519565b60405161057a9190612596565b60405180910390f35b61058b6115a0565b005b6105a760048036038101906105a29190612bb0565b61172b565b6040516105b49190612596565b60405180910390f35b6105d760048036038101906105d2919061236b565b611a97565b6040516105e79493929190612c33565b60405180910390f35b600d818154811061060057600080fd5b90600052602060002090600802016000915090508060000160009054906101000a900473ffffffffffffffffffffffffffffffffffffffff169080600101805461064990612cbc565b80601f016020809104026020016040519081016040528092919081815260200182805461067590612cbc565b80156106c25780601f10610697576101008083540402835291602001916106c2565b820191906000526020600020905b8154815290600101906020018083116106a557829003601f168201915b5050505050908060020154908060050160009054906101000a900460ff16908060070154905085565b6060600380546106fa90612cbc565b80601f016020809104026020016040519081016040528092919081815260200182805461072690612cbc565b80156107735780601f1061074857610100808354040283529160200191610773565b820191906000526020600020905b81548152906001019060200180831161075657829003601f168201915b5050505050905090565b600080610788611d19565b9050610795818585611d21565b600191505092915050565b6000600254905090565b6000806107b5611d19565b90506107c2858285611d33565b6107cd858585611dc7565b60019150509392505050565b6000600d80549050905090565b60606000806000600c858154811061080157610800612ced565b5b9060005260206000209060080201600001805461081d90612cbc565b80601f016020809104026020016040519081016040528092919081815260200182805461084990612cbc565b80156108965780601f1061086b57610100808354040283529160200191610896565b820191906000526020600020905b81548152906001019060200180831161087957829003601f168201915b50505050509350600c85815481106108b1576108b0612ced565b5b9060005260206000209060080201600201549250600c85815481106108d9576108d8612ced565b5b9060005260206000209060080201600301549150600c858154811061090157610900612ced565b5b90600052602060002090600802016004015490509193509193565b60006012905090565b8061092f33610c46565b1015610970576040517f08c379a000000000000000000000000000000000000000000000000000000000815260040161096790612d8e565b60405180910390fd5b61097a3082611346565b50600061098633610c46565b14801561099557506000600b54115b156109b357600b60008154809291906109ad90612ddd565b91905055505b50565b6000600c80549050905090565b6000600c83815481106109d9576109d8612ced565b5b9060005260206000209060080201905060006109f433610c46565b11610a34576040517f08c379a0000000000000000000000000000000000000000000000000000000008152600401610a2b90612e78565b60405180910390fd5b42816002015410610a7a576040517f08c379a0000000000000000000000000000000000000000000000000000000008152600401610a7190612ee4565b60405180910390fd5b600015158160070160003373ffffffffffffffffffffffffffffffffffffffff1673ffffffffffffffffffffffffffffffffffffffff16815260200190815260200160002060009054906101000a900460ff16151514610b0f576040517f08c379a0000000000000000000000000000000000000000000000000000000008152600401610b0690612f76565b60405180910390fd5b815181600401541015610b57576040517f08c379a0000000000000000000000000000000000000000000000000000000008152600401610b4e90612fe2565b60405180910390fd5b60005b8251811015610bcc576000838281518110610b7857610b77612ced565b5b60200260200101519050826006018181548110610b9857610b97612ced565b5b906000526020600020016000815480929190610bb390613002565b9190505550508080610bc490613002565b915050610b5a565b50806005016000815480929190610be290613002565b919050555060018160070160003373ffffffffffffffffffffffffffffffffffffffff1673ffffffffffffffffffffffffffffffffffffffff16815260200190815260200160002060006101000a81548160ff021916908315150217905550505050565b60008060008373ffffffffffffffffffffffffffffffffffffffff1673ffffffffffffffffffffffffffffffffffffffff168152602001908152602001600020549050919050565b60006060600c8381548110610ca657610ca5612ced565b5b9060005260206000209060080201600501549150600c8381548110610cce57610ccd612ced565b5b9060005260206000209060080201600601805480602002602001604051908101604052809291908181526020018280548015610d2957602002820191906000526020600020905b815481526020019060010190808311610d15575b50505050509050915091565b6000600d8281548110610d4b57610d4a612ced565b5b906000526020600020906008020160050160009054906101000a900460ff169050919050565b600c8181548110610d8157600080fd5b9060005260206000209060080201600091509050806000018054610da490612cbc565b80601f0160208091040260200160405190810160405280929190818152602001828054610dd090612cbc565b8015610e1d5780601f10610df257610100808354040283529160200191610e1d565b820191906000526020600020905b815481529060010190602001808311610e0057829003601f168201915b5050505050908060010160009054906101000a900473ffffffffffffffffffffffffffffffffffffffff16908060020154908060030154908060040154908060050154905086565b6000600c8281548110610e7b57610e7a612ced565b5b906000526020600020906008020160010160009054906101000a900473ffffffffffffffffffffffffffffffffffffffff169050919050565b6000600d8281548110610eca57610ec9612ced565b5b906000526020600020906008020160000160009054906101000a900473ffffffffffffffffffffffffffffffffffffffff169050919050565b606060048054610f1290612cbc565b80601f0160208091040260200160405190810160405280929190818152602001828054610f3e90612cbc565b8015610f8b5780601f10610f6057610100808354040283529160200191610f8b565b820191906000526020600020905b815481529060010190602001808311610f6e57829003601f168201915b5050505050905090565b600080610fa133610c46565b11610fe1576040517f08c379a0000000000000000000000000000000000000000000000000000000008152600401610fd8906130bc565b60405180910390fd5b600854610fed33610c46565b101561102e576040517f08c379a00000000000000000000000000000000000000000000000000000000081526004016110259061314e565b60405180910390fd5b600754600a60009054906101000a900473ffffffffffffffffffffffffffffffffffffffff1673ffffffffffffffffffffffffffffffffffffffff166370a08231336040518263ffffffff1660e01b815260040161108c91906129ae565b602060405180830381865afa1580156110a9573d6000803e3d6000fd5b505050506040513d601f19601f820116820180604052508101906110cd9190613183565b101561110e576040517f08c379a000000000000000000000000000000000000000000000000000000000815260040161110590613222565b60405180910390fd5b61111a30600854611346565b50600a60009054906101000a900473ffffffffffffffffffffffffffffffffffffffff1673ffffffffffffffffffffffffffffffffffffffff166323b872dd33600a60009054906101000a900473ffffffffffffffffffffffffffffffffffffffff166007546040518463ffffffff1660e01b815260040161119e93929190613242565b6020604051808303816000875af11580156111bd573d6000803e3d6000fd5b505050506040513d601f19601f820116820180604052508101906111e191906132a5565b50600d8054905090506000600d8281548110611200576111ff612ced565b5b9060005260206000209060080201905085816001019081611221919061347e565b5084816002018190555060008160050160006101000a81548160ff021916908315150217905550838160030190805190602001906112609291906122b7565b50828160040190805190602001906112799291906122b7565b50338160000160006101000a81548173ffffffffffffffffffffffffffffffffffffffff021916908373ffffffffffffffffffffffffffffffffffffffff16021790555060006112c833610c46565b036112e657600b60008154809291906112e090612ddd565b91905055505b50949350505050565b600e6020528060005260406000206000915090508060000160009054906101000a900473ffffffffffffffffffffffffffffffffffffffff16908060010154908060020160009054906101000a900460ff16905083565b600080611351611d19565b905061135e818585611dc7565b600191505092915050565b6000600954905090565b80600a60009054906101000a900473ffffffffffffffffffffffffffffffffffffffff1673ffffffffffffffffffffffffffffffffffffffff166370a08231336040518263ffffffff1660e01b81526004016113cf91906129ae565b602060405180830381865afa1580156113ec573d6000803e3d6000fd5b505050506040513d601f19601f820116820180604052508101906114109190613183565b1015611451576040517f08c379a0000000000000000000000000000000000000000000000000000000008152600401611448906135c2565b60405180910390fd5b600a60009054906101000a900473ffffffffffffffffffffffffffffffffffffffff1673ffffffffffffffffffffffffffffffffffffffff166323b872dd33600a60009054906101000a900473ffffffffffffffffffffffffffffffffffffffff16846040518463ffffffff1660e01b81526004016114d293929190613242565b6020604051808303816000875af11580156114f1573d6000803e3d6000fd5b505050506040513d601f19601f8201168201806040525081019061151591906132a5565b5050565b6000600160008473ffffffffffffffffffffffffffffffffffffffff1673ffffffffffffffffffffffffffffffffffffffff16815260200190815260200160002060008373ffffffffffffffffffffffffffffffffffffffff1673ffffffffffffffffffffffffffffffffffffffff16815260200190815260200160002054905092915050565b60001515600e60003373ffffffffffffffffffffffffffffffffffffffff1673ffffffffffffffffffffffffffffffffffffffff16815260200190815260200160002060020160009054906101000a900460ff16151514611636576040517f08c379a000000000000000000000000000000000000000000000000000000000815260040161162d9061362e565b60405180910390fd5b3073ffffffffffffffffffffffffffffffffffffffff1663a9059cbb3360016040518363ffffffff1660e01b8152600401611672929190613689565b6020604051808303816000875af1158015611691573d6000803e3d6000fd5b505050506040513d601f19601f820116820180604052508101906116b591906132a5565b506001600e60003373ffffffffffffffffffffffffffffffffffffffff1673ffffffffffffffffffffffffffffffffffffffff16815260200190815260200160002060020160006101000a81548160ff021916908315150217905550600b600081548092919061172490613002565b9190505550565b60008061173733610c46565b11611777576040517f08c379a000000000000000000000000000000000000000000000000000000000815260040161176e906130bc565b60405180910390fd5b60065461178333610c46565b10156117c4576040517f08c379a00000000000000000000000000000000000000000000000000000000081526004016117bb90613724565b60405180910390fd5b600554600a60009054906101000a900473ffffffffffffffffffffffffffffffffffffffff1673ffffffffffffffffffffffffffffffffffffffff166370a08231336040518263ffffffff1660e01b815260040161182291906129ae565b602060405180830381865afa15801561183f573d6000803e3d6000fd5b505050506040513d601f19601f820116820180604052508101906118639190613183565b10156118a4576040517f08c379a000000000000000000000000000000000000000000000000000000000815260040161189b906137b6565b60405180910390fd5b6118b030600654611346565b50600a60009054906101000a900473ffffffffffffffffffffffffffffffffffffffff1673ffffffffffffffffffffffffffffffffffffffff166323b872dd33600a60009054906101000a900473ffffffffffffffffffffffffffffffffffffffff166005546040518463ffffffff1660e01b815260040161193493929190613242565b6020604051808303816000875af1158015611953573d6000803e3d6000fd5b505050506040513d601f19601f8201168201806040525081019061197791906132a5565b50600c8054905090506000600c828154811061199657611995612ced565b5b90600052602060002090600802019050858160000190816119b7919061347e565b50848160020181905550838160030181905550828160040181905550338160010160006101000a81548173ffffffffffffffffffffffffffffffffffffffff021916908373ffffffffffffffffffffffffffffffffffffffff1602179055506000816005018190555060005b84811015611a64576000826006018281548110611a4357611a42612ced565b5b90600052602060002001819055508080611a5c90613002565b915050611a23565b506000611a7033610c46565b03611a8e57600b6000815480929190611a8890612ddd565b91905055505b50949350505050565b60606000606080600d8581548110611ab257611ab1612ced565b5b90600052602060002090600802016001018054611ace90612cbc565b80601f0160208091040260200160405190810160405280929190818152602001828054611afa90612cbc565b8015611b475780601f10611b1c57610100808354040283529160200191611b47565b820191906000526020600020905b815481529060010190602001808311611b2a57829003601f168201915b50505050509350600d8581548110611b6257611b61612ced565b5b9060005260206000209060080201600201549250600d8581548110611b8a57611b89612ced565b5b9060005260206000209060080201600301805480602002602001604051908101604052809291908181526020018280548015611be557602002820191906000526020600020905b815481526020019060010190808311611bd1575b50505050509150600d8581548110611c0057611bff612ced565b5b9060005260206000209060080201600401805480602002602001604051908101604052809291908181526020018280548015611c5b57602002820191906000526020600020905b815481526020019060010190808311611c47575b50505050509050600d8581548110611c7657611c75612ced565b5b90600052602060002090600802016001018054611c9290612cbc565b80601f0160208091040260200160405190810160405280929190818152602001828054611cbe90612cbc565b8015611d0b5780601f10611ce057610100808354040283529160200191611d0b565b820191906000526020600020905b815481529060010190602001808311611cee57829003601f168201915b505050505093509193509193565b600033905090565b611d2e8383836001611ebb565b505050565b6000611d3f8484611519565b90507fffffffffffffffffffffffffffffffffffffffffffffffffffffffffffffffff8114611dc15781811015611db1578281836040517ffb8f41b2000000000000000000000000000000000000000000000000000000008152600401611da8939291906137d6565b60405180910390fd5b611dc084848484036000611ebb565b5b50505050565b600073ffffffffffffffffffffffffffffffffffffffff168373ffffffffffffffffffffffffffffffffffffffff1603611e395760006040517f96c6fd1e000000000000000000000000000000000000000000000000000000008152600401611e3091906129ae565b60405180910390fd5b600073ffffffffffffffffffffffffffffffffffffffff168273ffffffffffffffffffffffffffffffffffffffff1603611eab5760006040517fec442f05000000000000000000000000000000000000000000000000000000008152600401611ea291906129ae565b60405180910390fd5b611eb6838383612092565b505050565b600073ffffffffffffffffffffffffffffffffffffffff168473ffffffffffffffffffffffffffffffffffffffff1603611f2d5760006040517fe602df05000000000000000000000000000000000000000000000000000000008152600401611f2491906129ae565b60405180910390fd5b600073ffffffffffffffffffffffffffffffffffffffff168373ffffffffffffffffffffffffffffffffffffffff1603611f9f5760006040517f94280d62000000000000000000000000000000000000000000000000000000008152600401611f9691906129ae565b60405180910390fd5b81600160008673ffffffffffffffffffffffffffffffffffffffff1673ffffffffffffffffffffffffffffffffffffffff16815260200190815260200160002060008573ffffffffffffffffffffffffffffffffffffffff1673ffffffffffffffffffffffffffffffffffffffff16815260200190815260200160002081905550801561208c578273ffffffffffffffffffffffffffffffffffffffff168473ffffffffffffffffffffffffffffffffffffffff167f8c5be1e5ebec7d5bd14f71427d1e84f3dd0314c0f7b2291e5b200ac8c7c3b925846040516120839190612596565b60405180910390a35b50505050565b600073ffffffffffffffffffffffffffffffffffffffff168373ffffffffffffffffffffffffffffffffffffffff16036120e45780600260008282546120d8919061380d565b925050819055506121b7565b60008060008573ffffffffffffffffffffffffffffffffffffffff1673ffffffffffffffffffffffffffffffffffffffff16815260200190815260200160002054905081811015612170578381836040517fe450d38c000000000000000000000000000000000000000000000000000000008152600401612167939291906137d6565b60405180910390fd5b8181036000808673ffffffffffffffffffffffffffffffffffffffff1673ffffffffffffffffffffffffffffffffffffffff16815260200190815260200160002081905550505b600073ffffffffffffffffffffffffffffffffffffffff168273ffffffffffffffffffffffffffffffffffffffff1603612200578060026000828254039250508190555061224d565b806000808473ffffffffffffffffffffffffffffffffffffffff1673ffffffffffffffffffffffffffffffffffffffff168152602001908152602001600020600082825401925050819055505b8173ffffffffffffffffffffffffffffffffffffffff168373ffffffffffffffffffffffffffffffffffffffff167fddf252ad1be2c89b69c2b068fc378daa952ba7f163c4a11628f55a4df523b3ef836040516122aa9190612596565b60405180910390a3505050565b8280548282559060005260206000209081019282156122f3579160200282015b828111156122f25782518255916020019190600101906122d7565b5b5090506123009190612304565b5090565b5b8082111561231d576000816000905550600101612305565b5090565b6000604051905090565b600080fd5b600080fd5b6000819050919050565b61234881612335565b811461235357600080fd5b50565b6000813590506123658161233f565b92915050565b6000602082840312156123815761238061232b565b5b600061238f84828501612356565b91505092915050565b600073ffffffffffffffffffffffffffffffffffffffff82169050919050565b60006123c382612398565b9050919050565b6123d3816123b8565b82525050565b600081519050919050565b600082825260208201905092915050565b60005b838110156124135780820151818401526020810190506123f8565b60008484015250505050565b6000601f19601f8301169050919050565b600061243b826123d9565b61244581856123e4565b93506124558185602086016123f5565b61245e8161241f565b840191505092915050565b61247281612335565b82525050565b60008115159050919050565b61248d81612478565b82525050565b600060a0820190506124a860008301886123ca565b81810360208301526124ba8187612430565b90506124c96040830186612469565b6124d66060830185612484565b6124e36080830184612469565b9695505050505050565b600060208201905081810360008301526125078184612430565b905092915050565b612518816123b8565b811461252357600080fd5b50565b6000813590506125358161250f565b92915050565b600080604083850312156125525761255161232b565b5b600061256085828601612526565b925050602061257185828601612356565b9150509250929050565b60006020820190506125906000830184612484565b92915050565b60006020820190506125ab6000830184612469565b92915050565b6000806000606084860312156125ca576125c961232b565b5b60006125d886828701612526565b93505060206125e986828701612526565b92505060406125fa86828701612356565b9150509250925092565b6000608082019050818103600083015261261e8187612430565b905061262d6020830186612469565b61263a6040830185612469565b6126476060830184612469565b95945050505050565b600060ff82169050919050565b61266681612650565b82525050565b6000602082019050612681600083018461265d565b92915050565b600080fd5b7f4e487b7100000000000000000000000000000000000000000000000000000000600052604160045260246000fd5b6126c48261241f565b810181811067ffffffffffffffff821117156126e3576126e261268c565b5b80604052505050565b60006126f6612321565b905061270282826126bb565b919050565b600067ffffffffffffffff8211156127225761272161268c565b5b602082029050602081019050919050565b600080fd5b600061274b61274684612707565b6126ec565b9050808382526020820190506020840283018581111561276e5761276d612733565b5b835b8181101561279757806127838882612356565b845260208401935050602081019050612770565b5050509392505050565b600082601f8301126127b6576127b5612687565b5b81356127c6848260208601612738565b91505092915050565b600080604083850312156127e6576127e561232b565b5b60006127f485828601612356565b925050602083013567ffffffffffffffff81111561281557612814612330565b5b612821858286016127a1565b9150509250929050565b6000602082840312156128415761284061232b565b5b600061284f84828501612526565b91505092915050565b600081519050919050565b600082825260208201905092915050565b6000819050602082019050919050565b61288d81612335565b82525050565b600061289f8383612884565b60208301905092915050565b6000602082019050919050565b60006128c382612858565b6128cd8185612863565b93506128d883612874565b8060005b838110156129095781516128f08882612893565b97506128fb836128ab565b9250506001810190506128dc565b5085935050505092915050565b600060408201905061292b6000830185612469565b818103602083015261293d81846128b8565b90509392505050565b600060c08201905081810360008301526129608189612430565b905061296f60208301886123ca565b61297c6040830187612469565b6129896060830186612469565b6129966080830185612469565b6129a360a0830184612469565b979650505050505050565b60006020820190506129c360008301846123ca565b92915050565b600080fd5b600067ffffffffffffffff8211156129e9576129e861268c565b5b6129f28261241f565b9050602081019050919050565b82818337600083830152505050565b6000612a21612a1c846129ce565b6126ec565b905082815260208101848484011115612a3d57612a3c6129c9565b5b612a488482856129ff565b509392505050565b600082601f830112612a6557612a64612687565b5b8135612a75848260208601612a0e565b91505092915050565b60008060008060808587031215612a9857612a9761232b565b5b600085013567ffffffffffffffff811115612ab657612ab5612330565b5b612ac287828801612a50565b9450506020612ad387828801612356565b935050604085013567ffffffffffffffff811115612af457612af3612330565b5b612b00878288016127a1565b925050606085013567ffffffffffffffff811115612b2157612b20612330565b5b612b2d878288016127a1565b91505092959194509250565b6000606082019050612b4e60008301866123ca565b612b5b6020830185612469565b612b686040830184612484565b949350505050565b60008060408385031215612b8757612b8661232b565b5b6000612b9585828601612526565b9250506020612ba685828601612526565b9150509250929050565b60008060008060808587031215612bca57612bc961232b565b5b600085013567ffffffffffffffff811115612be857612be7612330565b5b612bf487828801612a50565b9450506020612c0587828801612356565b9350506040612c1687828801612356565b9250506060612c2787828801612356565b91505092959194509250565b60006080820190508181036000830152612c4d8187612430565b9050612c5c6020830186612469565b8181036040830152612c6e81856128b8565b90508181036060830152612c8281846128b8565b905095945050505050565b7f4e487b7100000000000000000000000000000000000000000000000000000000600052602260045260246000fd5b60006002820490506001821680612cd457607f821691505b602082108103612ce757612ce6612c8d565b5b50919050565b7f4e487b7100000000000000000000000000000000000000000000000000000000600052603260045260246000fd5b7f496e73756666696369656e7420616d6f756e74206f66204d79476f76546f6b6560008201527f6e00000000000000000000000000000000000000000000000000000000000000602082015250565b6000612d786021836123e4565b9150612d8382612d1c565b604082019050919050565b60006020820190508181036000830152612da781612d6b565b9050919050565b7f4e487b7100000000000000000000000000000000000000000000000000000000600052601160045260246000fd5b6000612de882612335565b915060008203612dfb57612dfa612dae565b5b600182039050919050565b7f5573657273206d757374206265206d656d62657220746f2074616b652073757260008201527f7665792e00000000000000000000000000000000000000000000000000000000602082015250565b6000612e626024836123e4565b9150612e6d82612e06565b604082019050919050565b60006020820190508181036000830152612e9181612e55565b9050919050565b7f446561646c696e65206973207061737365642e00000000000000000000000000600082015250565b6000612ece6013836123e4565b9150612ed982612e98565b602082019050919050565b60006020820190508181036000830152612efd81612ec1565b9050919050565b7f557365722068617320616c72656164792074616b656e2074686520737572766560008201527f792e000000000000000000000000000000000000000000000000000000000000602082015250565b6000612f606022836123e4565b9150612f6b82612f04565b604082019050919050565b60006020820190508181036000830152612f8f81612f53565b9050919050565b7f557365722063686f736520746f6f206d756368206f7074696f6e2e0000000000600082015250565b6000612fcc601b836123e4565b9150612fd782612f96565b602082019050919050565b60006020820190508181036000830152612ffb81612fbf565b9050919050565b600061300d82612335565b91507fffffffffffffffffffffffffffffffffffffffffffffffffffffffffffffffff820361303f5761303e612dae565b5b600182019050919050565b7f5573657273206d757374206265206d656d62657220746f207375626d6974207360008201527f75727665792e0000000000000000000000000000000000000000000000000000602082015250565b60006130a66026836123e4565b91506130b18261304a565b604082019050919050565b600060208201905081810360008301526130d581613099565b9050919050565b7f54686572652069736e277420656e6f75676820616d6f756e74206f66204d794760008201527f6f76546f6b656e20746f2070726f706f73652070726f6a6563742e0000000000602082015250565b6000613138603b836123e4565b9150613143826130dc565b604082019050919050565b600060208201905081810360008301526131678161312b565b9050919050565b60008151905061317d8161233f565b92915050565b6000602082840312156131995761319861232b565b5b60006131a78482850161316e565b91505092915050565b7f54686572652069736e277420656e6f75676820616d6f756e74206f662055534460008201527f20746f2070726f706f73652070726f6a6563742e000000000000000000000000602082015250565b600061320c6034836123e4565b9150613217826131b0565b604082019050919050565b6000602082019050818103600083015261323b816131ff565b9050919050565b600060608201905061325760008301866123ca565b61326460208301856123ca565b6132716040830184612469565b949350505050565b61328281612478565b811461328d57600080fd5b50565b60008151905061329f81613279565b92915050565b6000602082840312156132bb576132ba61232b565b5b60006132c984828501613290565b91505092915050565b60008190508160005260206000209050919050565b60006020601f8301049050919050565b600082821b905092915050565b6000600883026133347fffffffffffffffffffffffffffffffffffffffffffffffffffffffffffffffff826132f7565b61333e86836132f7565b95508019841693508086168417925050509392505050565b6000819050919050565b600061337b61337661337184612335565b613356565b612335565b9050919050565b6000819050919050565b61339583613360565b6133a96133a182613382565b848454613304565b825550505050565b600090565b6133be6133b1565b6133c981848461338c565b505050565b5b818110156133ed576133e26000826133b6565b6001810190506133cf565b5050565b601f82111561343257613403816132d2565b61340c846132e7565b8101602085101561341b578190505b61342f613427856132e7565b8301826133ce565b50505b505050565b600082821c905092915050565b600061345560001984600802613437565b1980831691505092915050565b600061346e8383613444565b9150826002028217905092915050565b613487826123d9565b67ffffffffffffffff8111156134a05761349f61268c565b5b6134aa8254612cbc565b6134b58282856133f1565b600060209050601f8311600181146134e857600084156134d6578287015190505b6134e08582613462565b865550613548565b601f1984166134f6866132d2565b60005b8281101561351e578489015182556001820191506020850194506020810190506134f9565b8683101561353b5784890151613537601f891682613444565b8355505b6001600288020188555050505b505050505050565b7f496e73756666696369656e7420616d6f756e74206f662055534420537461626c60008201527f6520436f696e0000000000000000000000000000000000000000000000000000602082015250565b60006135ac6026836123e4565b91506135b782613550565b604082019050919050565b600060208201905081810360008301526135db8161359f565b9050919050565b7f5573657220676f7420616c726561647920746865206661756365742e00000000600082015250565b6000613618601c836123e4565b9150613623826135e2565b602082019050919050565b600060208201905081810360008301526136478161360b565b9050919050565b6000819050919050565b600061367361366e6136698461364e565b613356565b612335565b9050919050565b61368381613658565b82525050565b600060408201905061369e60008301856123ca565b6136ab602083018461367a565b9392505050565b7f54686572652069736e277420656e6f75676820616d6f756e74206f66204d794760008201527f6f76546f6b656e20746f207375626d6974207375727665792e00000000000000602082015250565b600061370e6039836123e4565b9150613719826136b2565b604082019050919050565b6000602082019050818103600083015261373d81613701565b9050919050565b7f54686572652069736e277420656e6f75676820616d6f756e74206f662055534460008201527f20746f207375626d6974207375727665792e0000000000000000000000000000602082015250565b60006137a06032836123e4565b91506137ab82613744565b604082019050919050565b600060208201905081810360008301526137cf81613793565b9050919050565b60006060820190506137eb60008301866123ca565b6137f86020830185612469565b6138056040830184612469565b949350505050565b600061381882612335565b915061382383612335565b925082820190508082111561383b5761383a612dae565b5b9291505056fea2646970667358221220711929dbb354e3d54f4d61f2c5df81e4f45a15bd18c54f42457f12b07a685eab64736f6c63430008140033",
  "linkReferences": {},
  "deployedLinkReferences": {}
}