{
  "_format": "hh-sol-artifact-1",
  "contractName": "MyGovToken",
  "sourceName": "contracts/MyGovToken.sol",
  "abi": [
    {
      "inputs": [
        {
          "internalType": "uint256",
          "name": "tokensupply",
          "type": "uint256"
        },
        {
          "internalType": "address",
          "name": "usdStableCoinAddress",
          "type": "address"
        }
      ],
      "stateMutability": "nonpayable",
      "type": "constructor"
    },
    {
      "inputs": [
        {
          "internalType": "address",
          "name": "spender",
          "type": "address"
        },
        {
          "internalType": "uint256",
          "name": "allowance",
          "type": "uint256"
        },
        {
          "internalType": "uint256",
          "name": "needed",
          "type": "uint256"
        }
      ],
      "name": "ERC20InsufficientAllowance",
      "type": "error"
    },
    {
      "inputs": [
        {
          "internalType": "address",
          "name": "sender",
          "type": "address"
        },
        {
          "internalType": "uint256",
          "name": "balance",
          "type": "uint256"
        },
        {
          "internalType": "uint256",
          "name": "needed",
          "type": "uint256"
        }
      ],
      "name": "ERC20InsufficientBalance",
      "type": "error"
    },
    {
      "inputs": [
        {
          "internalType": "address",
          "name": "approver",
          "type": "address"
        }
      ],
      "name": "ERC20InvalidApprover",
      "type": "error"
    },
    {
      "inputs": [
        {
          "internalType": "address",
          "name": "receiver",
          "type": "address"
        }
      ],
      "name": "ERC20InvalidReceiver",
      "type": "error"
    },
    {
      "inputs": [
        {
          "internalType": "address",
          "name": "sender",
          "type": "address"
        }
      ],
      "name": "ERC20InvalidSender",
      "type": "error"
    },
    {
      "inputs": [
        {
          "internalType": "address",
          "name": "spender",
          "type": "address"
        }
      ],
      "name": "ERC20InvalidSpender",
      "type": "error"
    },
    {
      "anonymous": false,
      "inputs": [
        {
          "indexed": true,
          "internalType": "address",
          "name": "owner",
          "type": "address"
        },
        {
          "indexed": true,
          "internalType": "address",
          "name": "spender",
          "type": "address"
        },
        {
          "indexed": false,
          "internalType": "uint256",
          "name": "value",
          "type": "uint256"
        }
      ],
      "name": "Approval",
      "type": "event"
    },
    {
      "anonymous": false,
      "inputs": [
        {
          "indexed": true,
          "internalType": "address",
          "name": "from",
          "type": "address"
        },
        {
          "indexed": true,
          "internalType": "address",
          "name": "to",
          "type": "address"
        },
        {
          "indexed": false,
          "internalType": "uint256",
          "name": "value",
          "type": "uint256"
        }
      ],
      "name": "Transfer",
      "type": "event"
    },
    {
      "inputs": [
        {
          "internalType": "address",
          "name": "owner",
          "type": "address"
        },
        {
          "internalType": "address",
          "name": "spender",
          "type": "address"
        }
      ],
      "name": "allowance",
      "outputs": [
        {
          "internalType": "uint256",
          "name": "",
          "type": "uint256"
        }
      ],
      "stateMutability": "view",
      "type": "function"
    },
    {
      "inputs": [
        {
          "internalType": "address",
          "name": "spender",
          "type": "address"
        },
        {
          "internalType": "uint256",
          "name": "value",
          "type": "uint256"
        }
      ],
      "name": "approve",
      "outputs": [
        {
          "internalType": "bool",
          "name": "",
          "type": "bool"
        }
      ],
      "stateMutability": "nonpayable",
      "type": "function"
    },
    {
      "inputs": [
        {
          "internalType": "address",
          "name": "account",
          "type": "address"
        }
      ],
      "name": "balanceOf",
      "outputs": [
        {
          "internalType": "uint256",
          "name": "",
          "type": "uint256"
        }
      ],
      "stateMutability": "view",
      "type": "function"
    },
    {
      "inputs": [],
      "name": "decimals",
      "outputs": [
        {
          "internalType": "uint8",
          "name": "",
          "type": "uint8"
        }
      ],
      "stateMutability": "view",
      "type": "function"
    },
    {
      "inputs": [
        {
          "internalType": "address",
          "name": "memberaddr",
          "type": "address"
        },
        {
          "internalType": "uint256",
          "name": "projectid",
          "type": "uint256"
        }
      ],
      "name": "delegateVoteTo",
      "outputs": [],
      "stateMutability": "nonpayable",
      "type": "function"
    },
    {
      "inputs": [
        {
          "internalType": "uint256",
          "name": "amount",
          "type": "uint256"
        }
      ],
      "name": "donateMyGovToken",
      "outputs": [],
      "stateMutability": "nonpayable",
      "type": "function"
    },
    {
      "inputs": [
        {
          "internalType": "uint256",
          "name": "amount",
          "type": "uint256"
        }
      ],
      "name": "donateUSD",
      "outputs": [],
      "stateMutability": "nonpayable",
      "type": "function"
    },
    {
      "inputs": [],
      "name": "faucet",
      "outputs": [],
      "stateMutability": "nonpayable",
      "type": "function"
    },
    {
      "inputs": [
        {
          "internalType": "uint256",
          "name": "projectid",
          "type": "uint256"
        }
      ],
      "name": "getIsProjectFunded",
      "outputs": [
        {
          "internalType": "bool",
          "name": "funded",
          "type": "bool"
        }
      ],
      "stateMutability": "view",
      "type": "function"
    },
    {
      "inputs": [],
      "name": "getNoOfFundedProjects",
      "outputs": [
        {
          "internalType": "uint256",
          "name": "numfunded",
          "type": "uint256"
        }
      ],
      "stateMutability": "view",
      "type": "function"
    },
    {
      "inputs": [],
      "name": "getNoOfProjectProposals",
      "outputs": [
        {
          "internalType": "uint256",
          "name": "numproposals",
          "type": "uint256"
        }
      ],
      "stateMutability": "view",
      "type": "function"
    },
    {
      "inputs": [],
      "name": "getNoOfSurveys",
      "outputs": [
        {
          "internalType": "uint256",
          "name": "numsurveys",
          "type": "uint256"
        }
      ],
      "stateMutability": "view",
      "type": "function"
    },
    {
      "inputs": [
        {
          "internalType": "uint256",
          "name": "activityid",
          "type": "uint256"
        }
      ],
      "name": "getProjectInfo",
      "outputs": [
        {
          "internalType": "string",
          "name": "ipfshash",
          "type": "string"
        },
        {
          "internalType": "uint256",
          "name": "votedeadline",
          "type": "uint256"
        },
        {
          "internalType": "uint256[]",
          "name": "paymentamounts",
          "type": "uint256[]"
        },
        {
          "internalType": "uint256[]",
          "name": "payschedule",
          "type": "uint256[]"
        }
      ],
      "stateMutability": "view",
      "type": "function"
    },
    {
      "inputs": [
        {
          "internalType": "uint256",
          "name": "projectid",
          "type": "uint256"
        }
      ],
      "name": "getProjectNextPayment",
      "outputs": [
        {
          "internalType": "int256",
          "name": "next",
          "type": "int256"
        }
      ],
      "stateMutability": "view",
      "type": "function"
    },
    {
      "inputs": [
        {
          "internalType": "uint256",
          "name": "projectid",
          "type": "uint256"
        }
      ],
      "name": "getProjectOwner",
      "outputs": [
        {
          "internalType": "address",
          "name": "projectowner",
          "type": "address"
        }
      ],
      "stateMutability": "view",
      "type": "function"
    },
    {
      "inputs": [
        {
          "internalType": "uint256",
          "name": "surveyid",
          "type": "uint256"
        }
      ],
      "name": "getSurveyInfo",
      "outputs": [
        {
          "internalType": "string",
          "name": "ipfshash",
          "type": "string"
        },
        {
          "internalType": "uint256",
          "name": "surveydeadline",
          "type": "uint256"
        },
        {
          "internalType": "uint256",
          "name": "numchoices",
          "type": "uint256"
        },
        {
          "internalType": "uint256",
          "name": "atmostchoice",
          "type": "uint256"
        }
      ],
      "stateMutability": "view",
      "type": "function"
    },
    {
      "inputs": [
        {
          "internalType": "uint256",
          "name": "surveyid",
          "type": "uint256"
        }
      ],
      "name": "getSurveyOwner",
      "outputs": [
        {
          "internalType": "address",
          "name": "surveyowner",
          "type": "address"
        }
      ],
      "stateMutability": "view",
      "type": "function"
    },
    {
      "inputs": [
        {
          "internalType": "uint256",
          "name": "surveyid",
          "type": "uint256"
        }
      ],
      "name": "getSurveyResults",
      "outputs": [
        {
          "internalType": "uint256",
          "name": "numtaken",
          "type": "uint256"
        },
        {
          "internalType": "uint256[]",
          "name": "results",
          "type": "uint256[]"
        }
      ],
      "stateMutability": "view",
      "type": "function"
    },
    {
      "inputs": [
        {
          "internalType": "uint256",
          "name": "projectid",
          "type": "uint256"
        }
      ],
      "name": "getUSDReceivedByProject",
      "outputs": [
        {
          "internalType": "uint256",
          "name": "amount",
          "type": "uint256"
        }
      ],
      "stateMutability": "view",
      "type": "function"
    },
    {
      "inputs": [],
      "name": "name",
      "outputs": [
        {
          "internalType": "string",
          "name": "",
          "type": "string"
        }
      ],
      "stateMutability": "view",
      "type": "function"
    },
    {
      "inputs": [
        {
          "internalType": "uint256",
          "name": "",
          "type": "uint256"
        }
      ],
      "name": "proposals",
      "outputs": [
        {
          "internalType": "address",
          "name": "projectOwner",
          "type": "address"
        },
        {
          "internalType": "string",
          "name": "ipfsHash",
          "type": "string"
        },
        {
          "internalType": "uint256",
          "name": "deadline",
          "type": "uint256"
        },
        {
          "internalType": "bool",
          "name": "isFunded",
          "type": "bool"
        },
        {
          "internalType": "uint256",
          "name": "vote",
          "type": "uint256"
        },
        {
          "internalType": "uint256",
          "name": "votepayment",
          "type": "uint256"
        }
      ],
      "stateMutability": "view",
      "type": "function"
    },
    {
      "inputs": [
        {
          "internalType": "uint256",
          "name": "projectid",
          "type": "uint256"
        }
      ],
      "name": "reserveProjectGrant",
      "outputs": [],
      "stateMutability": "nonpayable",
      "type": "function"
    },
    {
      "inputs": [
        {
          "internalType": "string",
          "name": "ipfshash",
          "type": "string"
        },
        {
          "internalType": "uint256",
          "name": "votedeadline",
          "type": "uint256"
        },
        {
          "internalType": "uint256[]",
          "name": "paymentamounts",
          "type": "uint256[]"
        },
        {
          "internalType": "uint256[]",
          "name": "payschedule",
          "type": "uint256[]"
        }
      ],
      "name": "submitProjectProposal",
      "outputs": [
        {
          "internalType": "uint256",
          "name": "projectid",
          "type": "uint256"
        }
      ],
      "stateMutability": "nonpayable",
      "type": "function"
    },
    {
      "inputs": [
        {
          "internalType": "string",
          "name": "ipfshash",
          "type": "string"
        },
        {
          "internalType": "uint256",
          "name": "surveydeadline",
          "type": "uint256"
        },
        {
          "internalType": "uint256",
          "name": "numchoices",
          "type": "uint256"
        },
        {
          "internalType": "uint256",
          "name": "atmostchoice",
          "type": "uint256"
        }
      ],
      "name": "submitSurvey",
      "outputs": [
        {
          "internalType": "uint256",
          "name": "surveyid",
          "type": "uint256"
        }
      ],
      "stateMutability": "nonpayable",
      "type": "function"
    },
    {
      "inputs": [
        {
          "internalType": "uint256",
          "name": "",
          "type": "uint256"
        }
      ],
      "name": "surveys",
      "outputs": [
        {
          "internalType": "string",
          "name": "ipfsHash",
          "type": "string"
        },
        {
          "internalType": "address",
          "name": "owner",
          "type": "address"
        },
        {
          "internalType": "uint256",
          "name": "deadline",
          "type": "uint256"
        },
        {
          "internalType": "uint256",
          "name": "numChoices",
          "type": "uint256"
        },
        {
          "internalType": "uint256",
          "name": "atMostChoice",
          "type": "uint256"
        },
        {
          "internalType": "uint256",
          "name": "numTaken",
          "type": "uint256"
        }
      ],
      "stateMutability": "view",
      "type": "function"
    },
    {
      "inputs": [],
      "name": "symbol",
      "outputs": [
        {
          "internalType": "string",
          "name": "",
          "type": "string"
        }
      ],
      "stateMutability": "view",
      "type": "function"
    },
    {
      "inputs": [
        {
          "internalType": "uint256",
          "name": "surveyid",
          "type": "uint256"
        },
        {
          "internalType": "uint256[]",
          "name": "choices",
          "type": "uint256[]"
        }
      ],
      "name": "takeSurvey",
      "outputs": [],
      "stateMutability": "nonpayable",
      "type": "function"
    },
    {
      "inputs": [],
      "name": "totalSupply",
      "outputs": [
        {
          "internalType": "uint256",
          "name": "",
          "type": "uint256"
        }
      ],
      "stateMutability": "view",
      "type": "function"
    },
    {
      "inputs": [
        {
          "internalType": "address",
          "name": "to",
          "type": "address"
        },
        {
          "internalType": "uint256",
          "name": "value",
          "type": "uint256"
        }
      ],
      "name": "transfer",
      "outputs": [
        {
          "internalType": "bool",
          "name": "",
          "type": "bool"
        }
      ],
      "stateMutability": "nonpayable",
      "type": "function"
    },
    {
      "inputs": [
        {
          "internalType": "address",
          "name": "from",
          "type": "address"
        },
        {
          "internalType": "address",
          "name": "to",
          "type": "address"
        },
        {
          "internalType": "uint256",
          "name": "value",
          "type": "uint256"
        }
      ],
      "name": "transferFrom",
      "outputs": [
        {
          "internalType": "bool",
          "name": "",
          "type": "bool"
        }
      ],
      "stateMutability": "nonpayable",
      "type": "function"
    },
    {
      "inputs": [
        {
          "internalType": "address",
          "name": "",
          "type": "address"
        }
      ],
      "name": "users",
      "outputs": [
        {
          "internalType": "address",
          "name": "userAddress",
          "type": "address"
        },
        {
          "internalType": "bool",
          "name": "fauceted",
          "type": "bool"
        },
        {
          "internalType": "uint256",
          "name": "lockedUntil",
          "type": "uint256"
        }
      ],
      "stateMutability": "view",
      "type": "function"
    },
    {
      "inputs": [
        {
          "internalType": "uint256",
          "name": "projectid",
          "type": "uint256"
        },
        {
          "internalType": "bool",
          "name": "choice",
          "type": "bool"
        }
      ],
      "name": "voteForProjectPayment",
      "outputs": [],
      "stateMutability": "nonpayable",
      "type": "function"
    },
    {
      "inputs": [
        {
          "internalType": "uint256",
          "name": "projectid",
          "type": "uint256"
        },
        {
          "internalType": "bool",
          "name": "choice",
          "type": "bool"
        }
      ],
      "name": "voteForProjectProposal",
      "outputs": [],
      "stateMutability": "nonpayable",
      "type": "function"
    },
    {
      "inputs": [
        {
          "internalType": "uint256",
          "name": "projectid",
          "type": "uint256"
        }
      ],
      "name": "withdrawProjectPayment",
      "outputs": [],
      "stateMutability": "nonpayable",
      "type": "function"
    }
  ],
  "bytecode": "0x60806040526005805560026006556032600755600560085560006009556000600b556000600c553480156200003357600080fd5b5060405162005f2638038062005f268339818101604052810190620000599190620004a8565b6040518060400160405280600b81526020017f4d79476f7620546f6b656e0000000000000000000000000000000000000000008152506040518060400160405280600581526020017f4d59474f560000000000000000000000000000000000000000000000000000008152508160039081620000d691906200075f565b508060049081620000e891906200075f565b50505080600a60006101000a81548173ffffffffffffffffffffffffffffffffffffffff021916908373ffffffffffffffffffffffffffffffffffffffff1602179055506200013e30836200014660201b60201c565b505062000949565b600073ffffffffffffffffffffffffffffffffffffffff168273ffffffffffffffffffffffffffffffffffffffff1603620001bb5760006040517fec442f05000000000000000000000000000000000000000000000000000000008152600401620001b2919062000857565b60405180910390fd5b620001cf60008383620001d360201b60201c565b5050565b600073ffffffffffffffffffffffffffffffffffffffff168373ffffffffffffffffffffffffffffffffffffffff1603620002295780600260008282546200021c9190620008a3565b92505081905550620002ff565b60008060008573ffffffffffffffffffffffffffffffffffffffff1673ffffffffffffffffffffffffffffffffffffffff16815260200190815260200160002054905081811015620002b8578381836040517fe450d38c000000000000000000000000000000000000000000000000000000008152600401620002af93929190620008ef565b60405180910390fd5b8181036000808673ffffffffffffffffffffffffffffffffffffffff1673ffffffffffffffffffffffffffffffffffffffff16815260200190815260200160002081905550505b600073ffffffffffffffffffffffffffffffffffffffff168273ffffffffffffffffffffffffffffffffffffffff16036200034a578060026000828254039250508190555062000397565b806000808473ffffffffffffffffffffffffffffffffffffffff1673ffffffffffffffffffffffffffffffffffffffff168152602001908152602001600020600082825401925050819055505b8173ffffffffffffffffffffffffffffffffffffffff168373ffffffffffffffffffffffffffffffffffffffff167fddf252ad1be2c89b69c2b068fc378daa952ba7f163c4a11628f55a4df523b3ef83604051620003f691906200092c565b60405180910390a3505050565b600080fd5b6000819050919050565b6200041d8162000408565b81146200042957600080fd5b50565b6000815190506200043d8162000412565b92915050565b600073ffffffffffffffffffffffffffffffffffffffff82169050919050565b6000620004708262000443565b9050919050565b620004828162000463565b81146200048e57600080fd5b50565b600081519050620004a28162000477565b92915050565b60008060408385031215620004c257620004c162000403565b5b6000620004d2858286016200042c565b9250506020620004e58582860162000491565b9150509250929050565b600081519050919050565b7f4e487b7100000000000000000000000000000000000000000000000000000000600052604160045260246000fd5b7f4e487b7100000000000000000000000000000000000000000000000000000000600052602260045260246000fd5b600060028204905060018216806200057157607f821691505b60208210810362000587576200058662000529565b5b50919050565b60008190508160005260206000209050919050565b60006020601f8301049050919050565b600082821b905092915050565b600060088302620005f17fffffffffffffffffffffffffffffffffffffffffffffffffffffffffffffffff82620005b2565b620005fd8683620005b2565b95508019841693508086168417925050509392505050565b6000819050919050565b6000620006406200063a620006348462000408565b62000615565b62000408565b9050919050565b6000819050919050565b6200065c836200061f565b620006746200066b8262000647565b848454620005bf565b825550505050565b600090565b6200068b6200067c565b6200069881848462000651565b505050565b5b81811015620006c057620006b460008262000681565b6001810190506200069e565b5050565b601f8211156200070f57620006d9816200058d565b620006e484620005a2565b81016020851015620006f4578190505b6200070c6200070385620005a2565b8301826200069d565b50505b505050565b600082821c905092915050565b6000620007346000198460080262000714565b1980831691505092915050565b60006200074f838362000721565b9150826002028217905092915050565b6200076a82620004ef565b67ffffffffffffffff811115620007865762000785620004fa565b5b62000792825462000558565b6200079f828285620006c4565b600060209050601f831160018114620007d75760008415620007c2578287015190505b620007ce858262000741565b8655506200083e565b601f198416620007e7866200058d565b60005b828110156200081157848901518255600182019150602085019450602081019050620007ea565b868310156200083157848901516200082d601f89168262000721565b8355505b6001600288020188555050505b505050505050565b620008518162000463565b82525050565b60006020820190506200086e600083018462000846565b92915050565b7f4e487b7100000000000000000000000000000000000000000000000000000000600052601160045260246000fd5b6000620008b08262000408565b9150620008bd8362000408565b9250828201905080821115620008d857620008d762000874565b5b92915050565b620008e98162000408565b82525050565b600060608201905062000906600083018662000846565b620009156020830185620008de565b620009246040830184620008de565b949350505050565b6000602082019050620009436000830184620008de565b92915050565b6155cd80620009596000396000f3fe608060405234801561001057600080fd5b50600436106102065760003560e01c8063875b50761161011a578063bd6c733c116100ad578063dd62ed3e1161007c578063dd62ed3e14610681578063de5f72fd146106b1578063ef269ae3146106bb578063f22449ba146106eb578063fabf59681461070757610206565b8063bd6c733c146105fb578063bf50556d14610617578063cbe0135c14610635578063d915902e1461066557610206565b8063a5e898e1116100e9578063a5e898e11461054d578063a87430ba1461057d578063a9059cbb146105af578063bd275764146105df57610206565b8063875b5076146104b357806392256aec146104e357806395d89b4114610513578063a1669b321461053157610206565b8063313ce5671161019d578063702798df1161016c578063702798df146103d157806370a08231146103ed57806370a56c731461041d5780637c4051641461044e57806386e68b901461047e57610206565b8063313ce5671461035d57806339c94d2d1461037b57806342caaeb4146103975780635d801b37146103b357610206565b80631d2acdfd116101d95780631d2acdfd146102ac57806323b872dd146102dc57806323fd498b1461030c5780632e8f34131461032a57610206565b8063013cf08b1461020b57806306fdde0314610240578063095ea7b31461025e57806318160ddd1461028e575b600080fd5b61022560048036038101906102209190613884565b61073a565b604051610237969594939291906139ac565b60405180910390f35b61024861083b565b6040516102559190613a14565b60405180910390f35b61027860048036038101906102739190613a62565b6108cd565b6040516102859190613aa2565b60405180910390f35b6102966108f0565b6040516102a39190613abd565b60405180910390f35b6102c660048036038101906102c19190613884565b6108fa565b6040516102d39190613af1565b60405180910390f35b6102f660048036038101906102f19190613b0c565b61099d565b6040516103039190613aa2565b60405180910390f35b6103146109cc565b6040516103219190613abd565b60405180910390f35b610344600480360381019061033f9190613884565b6109d9565b6040516103549493929190613b5f565b60405180910390f35b610365610b0f565b6040516103729190613bc7565b60405180910390f35b61039560048036038101906103909190613884565b610b18565b005b6103b160048036038101906103ac9190613c0e565b610ba9565b005b6103bb610ebf565b6040516103c89190613abd565b60405180910390f35b6103eb60048036038101906103e69190613d96565b610ecc565b005b61040760048036038101906104029190613df2565b61114f565b6040516104149190613abd565b60405180910390f35b61043760048036038101906104329190613884565b611197565b604051610445929190613edd565b60405180910390f35b61046860048036038101906104639190613884565b61123e565b6040516104759190613aa2565b60405180910390f35b61049860048036038101906104939190613884565b61127a565b6040516104aa96959493929190613f0d565b60405180910390f35b6104cd60048036038101906104c89190613884565b61136e565b6040516104da9190613f75565b60405180910390f35b6104fd60048036038101906104f89190613884565b6113bd565b60405161050a9190613f75565b60405180910390f35b61051b61140c565b6040516105289190613a14565b60405180910390f35b61054b60048036038101906105469190613a62565b61149e565b005b61056760048036038101906105629190614045565b6119b2565b6040516105749190613abd565b60405180910390f35b61059760048036038101906105929190613df2565b611d87565b6040516105a693929190614100565b60405180910390f35b6105c960048036038101906105c49190613a62565b611dde565b6040516105d69190613aa2565b60405180910390f35b6105f960048036038101906105f49190613884565b611e01565b005b61061560048036038101906106109190613884565b612109565b005b61061f6124a9565b60405161062c9190613abd565b60405180910390f35b61064f600480360381019061064a9190613884565b6124b3565b60405161065c9190613abd565b60405180910390f35b61067f600480360381019061067a9190613884565b612576565b005b61069b60048036038101906106969190614137565b61271c565b6040516106a89190613abd565b60405180910390f35b6106b96127a3565b005b6106d560048036038101906106d09190614177565b61292e565b6040516106e29190613abd565b60405180910390f35b61070560048036038101906107009190613c0e565b612c9a565b005b610721600480360381019061071c9190613884565b612fb0565b60405161073194939291906141fa565b60405180910390f35b600e818154811061074a57600080fd5b90600052602060002090600b02016000915090508060000160009054906101000a900473ffffffffffffffffffffffffffffffffffffffff169080600101805461079390614283565b80601f01602080910402602001604051908101604052809291908181526020018280546107bf90614283565b801561080c5780601f106107e15761010080835404028352916020019161080c565b820191906000526020600020905b8154815290600101906020018083116107ef57829003601f168201915b5050505050908060020154908060050160009054906101000a900460ff16908060080154908060090154905086565b60606003805461084a90614283565b80601f016020809104026020016040519081016040528092919081815260200182805461087690614283565b80156108c35780601f10610898576101008083540402835291602001916108c3565b820191906000526020600020905b8154815290600101906020018083116108a657829003601f168201915b5050505050905090565b6000806108d8613232565b90506108e581858561323a565b600191505092915050565b6000600254905090565b600080600e8381548110610911576109106142b4565b5b90600052602060002090600b0201905060005b816004018054905081101561099657816004018181548110610949576109486142b4565b5b906000526020600020015442101561098357816003018181548110610971576109706142b4565b5b90600052602060002001549250610996565b808061098e90614312565b915050610924565b5050919050565b6000806109a8613232565b90506109b585828561324c565b6109c08585856132e0565b60019150509392505050565b6000600e80549050905090565b60606000806000600d85815481106109f4576109f36142b4565b5b90600052602060002090600802016000018054610a1090614283565b80601f0160208091040260200160405190810160405280929190818152602001828054610a3c90614283565b8015610a895780601f10610a5e57610100808354040283529160200191610a89565b820191906000526020600020905b815481529060010190602001808311610a6c57829003601f168201915b50505050509350600d8581548110610aa457610aa36142b4565b5b9060005260206000209060080201600201549250600d8581548110610acc57610acb6142b4565b5b9060005260206000209060080201600301549150600d8581548110610af457610af36142b4565b5b90600052602060002090600802016004015490509193509193565b60006012905090565b80610b223361114f565b1015610b63576040517f08c379a0000000000000000000000000000000000000000000000000000000008152600401610b5a906143cc565b60405180910390fd5b610b6d3082611dde565b506000610b793361114f565b148015610b8857506000600b54115b15610ba657600b6000815480929190610ba0906143ec565b91905055505b50565b6000610bb43361114f565b11610bf4576040517f08c379a0000000000000000000000000000000000000000000000000000000008152600401610beb90614461565b60405180910390fd5b6000600e8381548110610c0a57610c096142b4565b5b90600052602060002090600b020190506000600f60003373ffffffffffffffffffffffffffffffffffffffff1673ffffffffffffffffffffffffffffffffffffffff1681526020019081526020016000209050600015158260070160003373ffffffffffffffffffffffffffffffffffffffff1673ffffffffffffffffffffffffffffffffffffffff16815260200190815260200160002060009054906101000a900460ff16151514610cf2576040517f08c379a0000000000000000000000000000000000000000000000000000000008152600401610ce9906144cd565b60405180910390fd5b600073ffffffffffffffffffffffffffffffffffffffff1681600101600086815260200190815260200160002060009054906101000a900473ffffffffffffffffffffffffffffffffffffffff1673ffffffffffffffffffffffffffffffffffffffff1614610d96576040517f08c379a0000000000000000000000000000000000000000000000000000000008152600401610d8d9061455f565b60405180910390fd5b80600201544211610ddc576040517f08c379a0000000000000000000000000000000000000000000000000000000008152600401610dd3906145f1565b60405180910390fd5b81600201544210610e22576040517f08c379a0000000000000000000000000000000000000000000000000000000008152600401610e1990614683565b60405180910390fd5b6001151583151503610e5f5780600301600085815260200190815260200160002054826009016000828254610e5791906146a3565b925050819055505b60018260070160003373ffffffffffffffffffffffffffffffffffffffff1673ffffffffffffffffffffffffffffffffffffffff16815260200190815260200160002060006101000a81548160ff02191690831515021790555050505050565b6000600d80549050905090565b6000600d8381548110610ee257610ee16142b4565b5b906000526020600020906008020190506000610efd3361114f565b11610f3d576040517f08c379a0000000000000000000000000000000000000000000000000000000008152600401610f3490614749565b60405180910390fd5b42816002015410610f83576040517f08c379a0000000000000000000000000000000000000000000000000000000008152600401610f7a906147b5565b60405180910390fd5b600015158160070160003373ffffffffffffffffffffffffffffffffffffffff1673ffffffffffffffffffffffffffffffffffffffff16815260200190815260200160002060009054906101000a900460ff16151514611018576040517f08c379a000000000000000000000000000000000000000000000000000000000815260040161100f90614847565b60405180910390fd5b815181600401541015611060576040517f08c379a0000000000000000000000000000000000000000000000000000000008152600401611057906148b3565b60405180910390fd5b60005b82518110156110d5576000838281518110611081576110806142b4565b5b602002602001015190508260060181815481106110a1576110a06142b4565b5b9060005260206000200160008154809291906110bc90614312565b91905055505080806110cd90614312565b915050611063565b508060050160008154809291906110eb90614312565b919050555060018160070160003373ffffffffffffffffffffffffffffffffffffffff1673ffffffffffffffffffffffffffffffffffffffff16815260200190815260200160002060006101000a81548160ff021916908315150217905550505050565b60008060008373ffffffffffffffffffffffffffffffffffffffff1673ffffffffffffffffffffffffffffffffffffffff168152602001908152602001600020549050919050565b60006060600d83815481106111af576111ae6142b4565b5b9060005260206000209060080201600501549150600d83815481106111d7576111d66142b4565b5b906000526020600020906008020160060180548060200260200160405190810160405280929190818152602001828054801561123257602002820191906000526020600020905b81548152602001906001019080831161121e575b50505050509050915091565b6000600e8281548110611254576112536142b4565b5b90600052602060002090600b020160050160009054906101000a900460ff169050919050565b600d818154811061128a57600080fd5b90600052602060002090600802016000915090508060000180546112ad90614283565b80601f01602080910402602001604051908101604052809291908181526020018280546112d990614283565b80156113265780601f106112fb57610100808354040283529160200191611326565b820191906000526020600020905b81548152906001019060200180831161130957829003601f168201915b5050505050908060010160009054906101000a900473ffffffffffffffffffffffffffffffffffffffff16908060020154908060030154908060040154908060050154905086565b6000600d8281548110611384576113836142b4565b5b906000526020600020906008020160010160009054906101000a900473ffffffffffffffffffffffffffffffffffffffff169050919050565b6000600e82815481106113d3576113d26142b4565b5b90600052602060002090600b020160000160009054906101000a900473ffffffffffffffffffffffffffffffffffffffff169050919050565b60606004805461141b90614283565b80601f016020809104026020016040519081016040528092919081815260200182805461144790614283565b80156114945780601f1061146957610100808354040283529160200191611494565b820191906000526020600020905b81548152906001019060200180831161147757829003601f168201915b5050505050905090565b6000600e82815481106114b4576114b36142b4565b5b90600052602060002090600b020190506000600f60003373ffffffffffffffffffffffffffffffffffffffff1673ffffffffffffffffffffffffffffffffffffffff16815260200190815260200160002090506000600f60008673ffffffffffffffffffffffffffffffffffffffff1673ffffffffffffffffffffffffffffffffffffffff1681526020019081526020016000209050600015158360060160003373ffffffffffffffffffffffffffffffffffffffff1673ffffffffffffffffffffffffffffffffffffffff16815260200190815260200160002060009054906101000a900460ff161515146115df576040517f08c379a00000000000000000000000000000000000000000000000000000000081526004016115d6906144cd565b60405180910390fd5b600015158360060160008773ffffffffffffffffffffffffffffffffffffffff1673ffffffffffffffffffffffffffffffffffffffff16815260200190815260200160002060009054906101000a900460ff16151514611674576040517f08c379a000000000000000000000000000000000000000000000000000000000815260040161166b9061491f565b60405180910390fd5b8473ffffffffffffffffffffffffffffffffffffffff163373ffffffffffffffffffffffffffffffffffffffff16036116e2576040517f08c379a00000000000000000000000000000000000000000000000000000000081526004016116d99061498b565b60405180910390fd5b60006116ed3361114f565b1161172d576040517f08c379a0000000000000000000000000000000000000000000000000000000008152600401611724906149f7565b60405180910390fd5b60006117388661114f565b11611778576040517f08c379a000000000000000000000000000000000000000000000000000000000815260040161176f90614a63565b60405180910390fd5b600073ffffffffffffffffffffffffffffffffffffffff1682600101600086815260200190815260200160002060009054906101000a900473ffffffffffffffffffffffffffffffffffffffff1673ffffffffffffffffffffffffffffffffffffffff161461181c576040517f08c379a00000000000000000000000000000000000000000000000000000000081526004016118139061455f565b60405180910390fd5b600073ffffffffffffffffffffffffffffffffffffffff1681600101600086815260200190815260200160002060009054906101000a900473ffffffffffffffffffffffffffffffffffffffff1673ffffffffffffffffffffffffffffffffffffffff16146118c0576040517f08c379a00000000000000000000000000000000000000000000000000000000081526004016118b790614af5565b60405180910390fd5b8482600101600086815260200190815260200160002060006101000a81548173ffffffffffffffffffffffffffffffffffffffff021916908373ffffffffffffffffffffffffffffffffffffffff160217905550600081600301600086815260200190815260200160002054148061194d5750600181600301600086815260200190815260200160002054145b156119725760028160030160008681526020019081526020016000208190555061199e565b806003016000858152602001908152602001600020600081548092919061199890614312565b91905055505b826002015482600201819055505050505050565b6000806119be3361114f565b116119fe576040517f08c379a00000000000000000000000000000000000000000000000000000000081526004016119f590614b87565b60405180910390fd5b600854611a0a3361114f565b1015611a4b576040517f08c379a0000000000000000000000000000000000000000000000000000000008152600401611a4290614c19565b60405180910390fd5b600754600a60009054906101000a900473ffffffffffffffffffffffffffffffffffffffff1673ffffffffffffffffffffffffffffffffffffffff166370a08231336040518263ffffffff1660e01b8152600401611aa99190613f75565b602060405180830381865afa158015611ac6573d6000803e3d6000fd5b505050506040513d601f19601f82011682018060405250810190611aea9190614c4e565b1015611b2b576040517f08c379a0000000000000000000000000000000000000000000000000000000008152600401611b2290614ced565b60405180910390fd5b611b3730600854611dde565b50600a60009054906101000a900473ffffffffffffffffffffffffffffffffffffffff1673ffffffffffffffffffffffffffffffffffffffff166323b872dd33600a60009054906101000a900473ffffffffffffffffffffffffffffffffffffffff166007546040518463ffffffff1660e01b8152600401611bbb93929190614d0d565b6020604051808303816000875af1158015611bda573d6000803e3d6000fd5b505050506040513d601f19601f82011682018060405250810190611bfe9190614d59565b50600e8054905090506000600e8281548110611c1d57611c1c6142b4565b5b90600052602060002090600b0201905085816001019081611c3e9190614f32565b5084816002018190555060008160050160006101000a81548160ff02191690831515021790555083816003019080519060200190611c7d9291906137d0565b5082816004019080519060200190611c969291906137d0565b50338160000160006101000a81548173ffffffffffffffffffffffffffffffffffffffff021916908373ffffffffffffffffffffffffffffffffffffffff16021790555060008160080181905550600081600901819055506000611cf93361114f565b03611d1757600b6000815480929190611d11906143ec565b91905055505b60005b8160030180549050811015611d7d57600082600a018281548110611d4157611d406142b4565b5b90600052602060002090602091828204019190066101000a81548160ff0219169083151502179055508080611d7590614312565b915050611d1a565b5050949350505050565b600f6020528060005260406000206000915090508060000160009054906101000a900473ffffffffffffffffffffffffffffffffffffffff16908060000160149054906101000a900460ff16908060020154905083565b600080611de9613232565b9050611df68185856132e0565b600191505092915050565b6000600e8281548110611e1757611e166142b4565b5b90600052602060002090600b020190508060000160009054906101000a900473ffffffffffffffffffffffffffffffffffffffff1673ffffffffffffffffffffffffffffffffffffffff163373ffffffffffffffffffffffffffffffffffffffff1614611eb9576040517f08c379a0000000000000000000000000000000000000000000000000000000008152600401611eb090615050565b60405180910390fd5b42816002015410611eff576040517f08c379a0000000000000000000000000000000000000000000000000000000008152600401611ef6906147b5565b60405180910390fd5b600a600b54611f0e919061509f565b81600801541015611f54576040517f08c379a0000000000000000000000000000000000000000000000000000000008152600401611f4b9061511c565b60405180910390fd5b6000805b8260030180549050811015611fa857826003018181548110611f7d57611f7c6142b4565b5b906000526020600020015482611f9391906146a3565b91508080611fa090614312565b915050611f58565b50600c5481611fb791906146a3565b600a60009054906101000a900473ffffffffffffffffffffffffffffffffffffffff1673ffffffffffffffffffffffffffffffffffffffff166370a08231600a60009054906101000a900473ffffffffffffffffffffffffffffffffffffffff166040518263ffffffff1660e01b81526004016120349190613f75565b602060405180830381865afa158015612051573d6000803e3d6000fd5b505050506040513d601f19601f820116820180604052508101906120759190614c4e565b10156120b6576040517f08c379a00000000000000000000000000000000000000000000000000000000081526004016120ad906151ae565b60405180910390fd5b80600c60008282546120c891906146a3565b9250508190555060018260050160006101000a81548160ff021916908315150217905550600960008154809291906120ff90614312565b9190505550505050565b6000600e828154811061211f5761211e6142b4565b5b90600052602060002090600b020190508060050160009054906101000a900460ff16612180576040517f08c379a00000000000000000000000000000000000000000000000000000000081526004016121779061521a565b60405180910390fd5b8060000160009054906101000a900473ffffffffffffffffffffffffffffffffffffffff1673ffffffffffffffffffffffffffffffffffffffff163373ffffffffffffffffffffffffffffffffffffffff1614612212576040517f08c379a000000000000000000000000000000000000000000000000000000000815260040161220990615050565b60405180910390fd5b6064600b54612221919061509f565b8160090154106124875760005b8160040180549050811015612481576000151582600a018281548110612257576122566142b4565b5b90600052602060002090602091828204019190069054906101000a900460ff1615151480156122a5575042826004018281548110612298576122976142b4565b5b9060005260206000200154105b1561246e57600c548260030182815481106122c3576122c26142b4565b5b90600052602060002001541061230e576040517f08c379a000000000000000000000000000000000000000000000000000000000815260040161230590615286565b60405180910390fd5b600a60009054906101000a900473ffffffffffffffffffffffffffffffffffffffff1673ffffffffffffffffffffffffffffffffffffffff166323b872dd600a60009054906101000a900473ffffffffffffffffffffffffffffffffffffffff1633856003018581548110612386576123856142b4565b5b90600052602060002001546040518463ffffffff1660e01b81526004016123af93929190614d0d565b6020604051808303816000875af11580156123ce573d6000803e3d6000fd5b505050506040513d601f19601f820116820180604052508101906123f29190614d59565b50816003018181548110612409576124086142b4565b5b9060005260206000200154600c600082825461242591906152a6565b92505081905550600182600a018281548110612444576124436142b4565b5b90600052602060002090602091828204019190066101000a81548160ff0219169083151502179055505b808061247990614312565b91505061222e565b506124a5565b60008160050160006101000a81548160ff0219169083151502179055505b5050565b6000600954905090565b600080600e83815481106124ca576124c96142b4565b5b90600052602060002090600b0201905060005b816003018054905081101561256f576000151582600a018281548110612506576125056142b4565b5b90600052602060002090602091828204019190069054906101000a900460ff161515031561256f57816003018181548110612544576125436142b4565b5b90600052602060002001548361255a91906146a3565b9250808061256790614312565b9150506124dd565b5050919050565b80600a60009054906101000a900473ffffffffffffffffffffffffffffffffffffffff1673ffffffffffffffffffffffffffffffffffffffff166370a08231336040518263ffffffff1660e01b81526004016125d29190613f75565b602060405180830381865afa1580156125ef573d6000803e3d6000fd5b505050506040513d601f19601f820116820180604052508101906126139190614c4e565b1015612654576040517f08c379a000000000000000000000000000000000000000000000000000000000815260040161264b9061534c565b60405180910390fd5b600a60009054906101000a900473ffffffffffffffffffffffffffffffffffffffff1673ffffffffffffffffffffffffffffffffffffffff166323b872dd33600a60009054906101000a900473ffffffffffffffffffffffffffffffffffffffff16846040518463ffffffff1660e01b81526004016126d593929190614d0d565b6020604051808303816000875af11580156126f4573d6000803e3d6000fd5b505050506040513d601f19601f820116820180604052508101906127189190614d59565b5050565b6000600160008473ffffffffffffffffffffffffffffffffffffffff1673ffffffffffffffffffffffffffffffffffffffff16815260200190815260200160002060008373ffffffffffffffffffffffffffffffffffffffff1673ffffffffffffffffffffffffffffffffffffffff16815260200190815260200160002054905092915050565b60001515600f60003373ffffffffffffffffffffffffffffffffffffffff1673ffffffffffffffffffffffffffffffffffffffff16815260200190815260200160002060000160149054906101000a900460ff16151514612839576040517f08c379a0000000000000000000000000000000000000000000000000000000008152600401612830906153b8565b60405180910390fd5b3073ffffffffffffffffffffffffffffffffffffffff1663a9059cbb3360016040518363ffffffff1660e01b8152600401612875929190615413565b6020604051808303816000875af1158015612894573d6000803e3d6000fd5b505050506040513d601f19601f820116820180604052508101906128b89190614d59565b506001600f60003373ffffffffffffffffffffffffffffffffffffffff1673ffffffffffffffffffffffffffffffffffffffff16815260200190815260200160002060000160146101000a81548160ff021916908315150217905550600b600081548092919061292790614312565b9190505550565b60008061293a3361114f565b1161297a576040517f08c379a000000000000000000000000000000000000000000000000000000000815260040161297190614b87565b60405180910390fd5b6006546129863361114f565b10156129c7576040517f08c379a00000000000000000000000000000000000000000000000000000000081526004016129be906154ae565b60405180910390fd5b600554600a60009054906101000a900473ffffffffffffffffffffffffffffffffffffffff1673ffffffffffffffffffffffffffffffffffffffff166370a08231336040518263ffffffff1660e01b8152600401612a259190613f75565b602060405180830381865afa158015612a42573d6000803e3d6000fd5b505050506040513d601f19601f82011682018060405250810190612a669190614c4e565b1015612aa7576040517f08c379a0000000000000000000000000000000000000000000000000000000008152600401612a9e90615540565b60405180910390fd5b612ab330600654611dde565b50600a60009054906101000a900473ffffffffffffffffffffffffffffffffffffffff1673ffffffffffffffffffffffffffffffffffffffff166323b872dd33600a60009054906101000a900473ffffffffffffffffffffffffffffffffffffffff166005546040518463ffffffff1660e01b8152600401612b3793929190614d0d565b6020604051808303816000875af1158015612b56573d6000803e3d6000fd5b505050506040513d601f19601f82011682018060405250810190612b7a9190614d59565b50600d8054905090506000600d8281548110612b9957612b986142b4565b5b9060005260206000209060080201905085816000019081612bba9190614f32565b50848160020181905550838160030181905550828160040181905550338160010160006101000a81548173ffffffffffffffffffffffffffffffffffffffff021916908373ffffffffffffffffffffffffffffffffffffffff1602179055506000816005018190555060005b84811015612c67576000826006018281548110612c4657612c456142b4565b5b90600052602060002001819055508080612c5f90614312565b915050612c26565b506000612c733361114f565b03612c9157600b6000815480929190612c8b906143ec565b91905055505b50949350505050565b6000612ca53361114f565b11612ce5576040517f08c379a0000000000000000000000000000000000000000000000000000000008152600401612cdc90614461565b60405180910390fd5b6000600e8381548110612cfb57612cfa6142b4565b5b90600052602060002090600b020190506000600f60003373ffffffffffffffffffffffffffffffffffffffff1673ffffffffffffffffffffffffffffffffffffffff1681526020019081526020016000209050600015158260060160003373ffffffffffffffffffffffffffffffffffffffff1673ffffffffffffffffffffffffffffffffffffffff16815260200190815260200160002060009054906101000a900460ff16151514612de3576040517f08c379a0000000000000000000000000000000000000000000000000000000008152600401612dda906144cd565b60405180910390fd5b600073ffffffffffffffffffffffffffffffffffffffff1681600101600086815260200190815260200160002060009054906101000a900473ffffffffffffffffffffffffffffffffffffffff1673ffffffffffffffffffffffffffffffffffffffff1614612e87576040517f08c379a0000000000000000000000000000000000000000000000000000000008152600401612e7e9061455f565b60405180910390fd5b80600201544211612ecd576040517f08c379a0000000000000000000000000000000000000000000000000000000008152600401612ec4906145f1565b60405180910390fd5b81600201544210612f13576040517f08c379a0000000000000000000000000000000000000000000000000000000008152600401612f0a90614683565b60405180910390fd5b6001151583151503612f505780600301600085815260200190815260200160002054826008016000828254612f4891906146a3565b925050819055505b60018260060160003373ffffffffffffffffffffffffffffffffffffffff1673ffffffffffffffffffffffffffffffffffffffff16815260200190815260200160002060006101000a81548160ff02191690831515021790555050505050565b60606000606080600e8581548110612fcb57612fca6142b4565b5b90600052602060002090600b02016001018054612fe790614283565b80601f016020809104026020016040519081016040528092919081815260200182805461301390614283565b80156130605780601f1061303557610100808354040283529160200191613060565b820191906000526020600020905b81548152906001019060200180831161304357829003601f168201915b50505050509350600e858154811061307b5761307a6142b4565b5b90600052602060002090600b0201600201549250600e85815481106130a3576130a26142b4565b5b90600052602060002090600b02016003018054806020026020016040519081016040528092919081815260200182805480156130fe57602002820191906000526020600020905b8154815260200190600101908083116130ea575b50505050509150600e8581548110613119576131186142b4565b5b90600052602060002090600b020160040180548060200260200160405190810160405280929190818152602001828054801561317457602002820191906000526020600020905b815481526020019060010190808311613160575b50505050509050600e858154811061318f5761318e6142b4565b5b90600052602060002090600b020160010180546131ab90614283565b80601f01602080910402602001604051908101604052809291908181526020018280546131d790614283565b80156132245780601f106131f957610100808354040283529160200191613224565b820191906000526020600020905b81548152906001019060200180831161320757829003601f168201915b505050505093509193509193565b600033905090565b61324783838360016133d4565b505050565b6000613258848461271c565b90507fffffffffffffffffffffffffffffffffffffffffffffffffffffffffffffffff81146132da57818110156132ca578281836040517ffb8f41b20000000000000000000000000000000000000000000000000000000081526004016132c193929190615560565b60405180910390fd5b6132d9848484840360006133d4565b5b50505050565b600073ffffffffffffffffffffffffffffffffffffffff168373ffffffffffffffffffffffffffffffffffffffff16036133525760006040517f96c6fd1e0000000000000000000000000000000000000000000000000000000081526004016133499190613f75565b60405180910390fd5b600073ffffffffffffffffffffffffffffffffffffffff168273ffffffffffffffffffffffffffffffffffffffff16036133c45760006040517fec442f050000000000000000000000000000000000000000000000000000000081526004016133bb9190613f75565b60405180910390fd5b6133cf8383836135ab565b505050565b600073ffffffffffffffffffffffffffffffffffffffff168473ffffffffffffffffffffffffffffffffffffffff16036134465760006040517fe602df0500000000000000000000000000000000000000000000000000000000815260040161343d9190613f75565b60405180910390fd5b600073ffffffffffffffffffffffffffffffffffffffff168373ffffffffffffffffffffffffffffffffffffffff16036134b85760006040517f94280d620000000000000000000000000000000000000000000000000000000081526004016134af9190613f75565b60405180910390fd5b81600160008673ffffffffffffffffffffffffffffffffffffffff1673ffffffffffffffffffffffffffffffffffffffff16815260200190815260200160002060008573ffffffffffffffffffffffffffffffffffffffff1673ffffffffffffffffffffffffffffffffffffffff1681526020019081526020016000208190555080156135a5578273ffffffffffffffffffffffffffffffffffffffff168473ffffffffffffffffffffffffffffffffffffffff167f8c5be1e5ebec7d5bd14f71427d1e84f3dd0314c0f7b2291e5b200ac8c7c3b9258460405161359c9190613abd565b60405180910390a35b50505050565b600073ffffffffffffffffffffffffffffffffffffffff168373ffffffffffffffffffffffffffffffffffffffff16036135fd5780600260008282546135f191906146a3565b925050819055506136d0565b60008060008573ffffffffffffffffffffffffffffffffffffffff1673ffffffffffffffffffffffffffffffffffffffff16815260200190815260200160002054905081811015613689578381836040517fe450d38c00000000000000000000000000000000000000000000000000000000815260040161368093929190615560565b60405180910390fd5b8181036000808673ffffffffffffffffffffffffffffffffffffffff1673ffffffffffffffffffffffffffffffffffffffff16815260200190815260200160002081905550505b600073ffffffffffffffffffffffffffffffffffffffff168273ffffffffffffffffffffffffffffffffffffffff16036137195780600260008282540392505081905550613766565b806000808473ffffffffffffffffffffffffffffffffffffffff1673ffffffffffffffffffffffffffffffffffffffff168152602001908152602001600020600082825401925050819055505b8173ffffffffffffffffffffffffffffffffffffffff168373ffffffffffffffffffffffffffffffffffffffff167fddf252ad1be2c89b69c2b068fc378daa952ba7f163c4a11628f55a4df523b3ef836040516137c39190613abd565b60405180910390a3505050565b82805482825590600052602060002090810192821561380c579160200282015b8281111561380b5782518255916020019190600101906137f0565b5b509050613819919061381d565b5090565b5b8082111561383657600081600090555060010161381e565b5090565b6000604051905090565b600080fd5b600080fd5b6000819050919050565b6138618161384e565b811461386c57600080fd5b50565b60008135905061387e81613858565b92915050565b60006020828403121561389a57613899613844565b5b60006138a88482850161386f565b91505092915050565b600073ffffffffffffffffffffffffffffffffffffffff82169050919050565b60006138dc826138b1565b9050919050565b6138ec816138d1565b82525050565b600081519050919050565b600082825260208201905092915050565b60005b8381101561392c578082015181840152602081019050613911565b60008484015250505050565b6000601f19601f8301169050919050565b6000613954826138f2565b61395e81856138fd565b935061396e81856020860161390e565b61397781613938565b840191505092915050565b61398b8161384e565b82525050565b60008115159050919050565b6139a681613991565b82525050565b600060c0820190506139c160008301896138e3565b81810360208301526139d38188613949565b90506139e26040830187613982565b6139ef606083018661399d565b6139fc6080830185613982565b613a0960a0830184613982565b979650505050505050565b60006020820190508181036000830152613a2e8184613949565b905092915050565b613a3f816138d1565b8114613a4a57600080fd5b50565b600081359050613a5c81613a36565b92915050565b60008060408385031215613a7957613a78613844565b5b6000613a8785828601613a4d565b9250506020613a988582860161386f565b9150509250929050565b6000602082019050613ab7600083018461399d565b92915050565b6000602082019050613ad26000830184613982565b92915050565b6000819050919050565b613aeb81613ad8565b82525050565b6000602082019050613b066000830184613ae2565b92915050565b600080600060608486031215613b2557613b24613844565b5b6000613b3386828701613a4d565b9350506020613b4486828701613a4d565b9250506040613b558682870161386f565b9150509250925092565b60006080820190508181036000830152613b798187613949565b9050613b886020830186613982565b613b956040830185613982565b613ba26060830184613982565b95945050505050565b600060ff82169050919050565b613bc181613bab565b82525050565b6000602082019050613bdc6000830184613bb8565b92915050565b613beb81613991565b8114613bf657600080fd5b50565b600081359050613c0881613be2565b92915050565b60008060408385031215613c2557613c24613844565b5b6000613c338582860161386f565b9250506020613c4485828601613bf9565b9150509250929050565b600080fd5b7f4e487b7100000000000000000000000000000000000000000000000000000000600052604160045260246000fd5b613c8b82613938565b810181811067ffffffffffffffff82111715613caa57613ca9613c53565b5b80604052505050565b6000613cbd61383a565b9050613cc98282613c82565b919050565b600067ffffffffffffffff821115613ce957613ce8613c53565b5b602082029050602081019050919050565b600080fd5b6000613d12613d0d84613cce565b613cb3565b90508083825260208201905060208402830185811115613d3557613d34613cfa565b5b835b81811015613d5e5780613d4a888261386f565b845260208401935050602081019050613d37565b5050509392505050565b600082601f830112613d7d57613d7c613c4e565b5b8135613d8d848260208601613cff565b91505092915050565b60008060408385031215613dad57613dac613844565b5b6000613dbb8582860161386f565b925050602083013567ffffffffffffffff811115613ddc57613ddb613849565b5b613de885828601613d68565b9150509250929050565b600060208284031215613e0857613e07613844565b5b6000613e1684828501613a4d565b91505092915050565b600081519050919050565b600082825260208201905092915050565b6000819050602082019050919050565b613e548161384e565b82525050565b6000613e668383613e4b565b60208301905092915050565b6000602082019050919050565b6000613e8a82613e1f565b613e948185613e2a565b9350613e9f83613e3b565b8060005b83811015613ed0578151613eb78882613e5a565b9750613ec283613e72565b925050600181019050613ea3565b5085935050505092915050565b6000604082019050613ef26000830185613982565b8181036020830152613f048184613e7f565b90509392505050565b600060c0820190508181036000830152613f278189613949565b9050613f3660208301886138e3565b613f436040830187613982565b613f506060830186613982565b613f5d6080830185613982565b613f6a60a0830184613982565b979650505050505050565b6000602082019050613f8a60008301846138e3565b92915050565b600080fd5b600067ffffffffffffffff821115613fb057613faf613c53565b5b613fb982613938565b9050602081019050919050565b82818337600083830152505050565b6000613fe8613fe384613f95565b613cb3565b90508281526020810184848401111561400457614003613f90565b5b61400f848285613fc6565b509392505050565b600082601f83011261402c5761402b613c4e565b5b813561403c848260208601613fd5565b91505092915050565b6000806000806080858703121561405f5761405e613844565b5b600085013567ffffffffffffffff81111561407d5761407c613849565b5b61408987828801614017565b945050602061409a8782880161386f565b935050604085013567ffffffffffffffff8111156140bb576140ba613849565b5b6140c787828801613d68565b925050606085013567ffffffffffffffff8111156140e8576140e7613849565b5b6140f487828801613d68565b91505092959194509250565b600060608201905061411560008301866138e3565b614122602083018561399d565b61412f6040830184613982565b949350505050565b6000806040838503121561414e5761414d613844565b5b600061415c85828601613a4d565b925050602061416d85828601613a4d565b9150509250929050565b6000806000806080858703121561419157614190613844565b5b600085013567ffffffffffffffff8111156141af576141ae613849565b5b6141bb87828801614017565b94505060206141cc8782880161386f565b93505060406141dd8782880161386f565b92505060606141ee8782880161386f565b91505092959194509250565b600060808201905081810360008301526142148187613949565b90506142236020830186613982565b81810360408301526142358185613e7f565b905081810360608301526142498184613e7f565b905095945050505050565b7f4e487b7100000000000000000000000000000000000000000000000000000000600052602260045260246000fd5b6000600282049050600182168061429b57607f821691505b6020821081036142ae576142ad614254565b5b50919050565b7f4e487b7100000000000000000000000000000000000000000000000000000000600052603260045260246000fd5b7f4e487b7100000000000000000000000000000000000000000000000000000000600052601160045260246000fd5b600061431d8261384e565b91507fffffffffffffffffffffffffffffffffffffffffffffffffffffffffffffffff820361434f5761434e6142e3565b5b600182019050919050565b7f496e73756666696369656e7420616d6f756e74206f66204d79476f76546f6b6560008201527f6e00000000000000000000000000000000000000000000000000000000000000602082015250565b60006143b66021836138fd565b91506143c18261435a565b604082019050919050565b600060208201905081810360008301526143e5816143a9565b9050919050565b60006143f78261384e565b91506000820361440a576144096142e3565b5b600182039050919050565b7f566f746572206d7573742062652061206d656d6265722e000000000000000000600082015250565b600061444b6017836138fd565b915061445682614415565b602082019050919050565b6000602082019050818103600083015261447a8161443e565b9050919050565b7f5573657220616c726561647920766f7465642e00000000000000000000000000600082015250565b60006144b76013836138fd565b91506144c282614481565b602082019050919050565b600060208201905081810360008301526144e6816144aa565b9050919050565b7f5573657220616c72656164792064656c656761746564206869732f686572207660008201527f6f74652e00000000000000000000000000000000000000000000000000000000602082015250565b60006145496024836138fd565b9150614554826144ed565b604082019050919050565b600060208201905081810360008301526145788161453c565b9050919050565b7f55736572277320766f7465206973206c6f636b656420756e74696c206465616460008201527f6c696e65206f6620616e6f746865722070726f6a6563742e0000000000000000602082015250565b60006145db6038836138fd565b91506145e68261457f565b604082019050919050565b6000602082019050818103600083015261460a816145ce565b9050919050565b7f446561646c696e65206f66207468652070726f706f73616c206973207061737360008201527f65642e0000000000000000000000000000000000000000000000000000000000602082015250565b600061466d6023836138fd565b915061467882614611565b604082019050919050565b6000602082019050818103600083015261469c81614660565b9050919050565b60006146ae8261384e565b91506146b98361384e565b92508282019050808211156146d1576146d06142e3565b5b92915050565b7f5573657273206d757374206265206d656d62657220746f2074616b652073757260008201527f7665792e00000000000000000000000000000000000000000000000000000000602082015250565b60006147336024836138fd565b915061473e826146d7565b604082019050919050565b6000602082019050818103600083015261476281614726565b9050919050565b7f446561646c696e65206973207061737365642e00000000000000000000000000600082015250565b600061479f6013836138fd565b91506147aa82614769565b602082019050919050565b600060208201905081810360008301526147ce81614792565b9050919050565b7f557365722068617320616c72656164792074616b656e2074686520737572766560008201527f792e000000000000000000000000000000000000000000000000000000000000602082015250565b60006148316022836138fd565b915061483c826147d5565b604082019050919050565b6000602082019050818103600083015261486081614824565b9050919050565b7f557365722063686f736520746f6f206d756368206f7074696f6e2e0000000000600082015250565b600061489d601b836138fd565b91506148a882614867565b602082019050919050565b600060208201905081810360008301526148cc81614890565b9050919050565b7f44656c656761746564207573657220616c726561647920766f7465642e000000600082015250565b6000614909601d836138fd565b9150614914826148d3565b602082019050919050565b60006020820190508181036000830152614938816148fc565b9050919050565b7f53656c662064656c65676174696f6e206973206e6f7420616c6c6f7765642e00600082015250565b6000614975601f836138fd565b91506149808261493f565b602082019050919050565b600060208201905081810360008301526149a481614968565b9050919050565b7f55736572206d7573742062652061206d656d6265722e00000000000000000000600082015250565b60006149e16016836138fd565b91506149ec826149ab565b602082019050919050565b60006020820190508181036000830152614a10816149d4565b9050919050565b7f44656c6567617465206d7573742062652061206d656d6265722e000000000000600082015250565b6000614a4d601a836138fd565b9150614a5882614a17565b602082019050919050565b60006020820190508181036000830152614a7c81614a40565b9050919050565b7f44656c656761746520616c72656164792064656c656761746564206869732f6860008201527f657220766f74652e000000000000000000000000000000000000000000000000602082015250565b6000614adf6028836138fd565b9150614aea82614a83565b604082019050919050565b60006020820190508181036000830152614b0e81614ad2565b9050919050565b7f5573657273206d757374206265206d656d62657220746f207375626d6974207360008201527f75727665792e0000000000000000000000000000000000000000000000000000602082015250565b6000614b716026836138fd565b9150614b7c82614b15565b604082019050919050565b60006020820190508181036000830152614ba081614b64565b9050919050565b7f54686572652069736e277420656e6f75676820616d6f756e74206f66204d794760008201527f6f76546f6b656e20746f2070726f706f73652070726f6a6563742e0000000000602082015250565b6000614c03603b836138fd565b9150614c0e82614ba7565b604082019050919050565b60006020820190508181036000830152614c3281614bf6565b9050919050565b600081519050614c4881613858565b92915050565b600060208284031215614c6457614c63613844565b5b6000614c7284828501614c39565b91505092915050565b7f54686572652069736e277420656e6f75676820616d6f756e74206f662055534460008201527f20746f2070726f706f73652070726f6a6563742e000000000000000000000000602082015250565b6000614cd76034836138fd565b9150614ce282614c7b565b604082019050919050565b60006020820190508181036000830152614d0681614cca565b9050919050565b6000606082019050614d2260008301866138e3565b614d2f60208301856138e3565b614d3c6040830184613982565b949350505050565b600081519050614d5381613be2565b92915050565b600060208284031215614d6f57614d6e613844565b5b6000614d7d84828501614d44565b91505092915050565b60008190508160005260206000209050919050565b60006020601f8301049050919050565b600082821b905092915050565b600060088302614de87fffffffffffffffffffffffffffffffffffffffffffffffffffffffffffffffff82614dab565b614df28683614dab565b95508019841693508086168417925050509392505050565b6000819050919050565b6000614e2f614e2a614e258461384e565b614e0a565b61384e565b9050919050565b6000819050919050565b614e4983614e14565b614e5d614e5582614e36565b848454614db8565b825550505050565b600090565b614e72614e65565b614e7d818484614e40565b505050565b5b81811015614ea157614e96600082614e6a565b600181019050614e83565b5050565b601f821115614ee657614eb781614d86565b614ec084614d9b565b81016020851015614ecf578190505b614ee3614edb85614d9b565b830182614e82565b50505b505050565b600082821c905092915050565b6000614f0960001984600802614eeb565b1980831691505092915050565b6000614f228383614ef8565b9150826002028217905092915050565b614f3b826138f2565b67ffffffffffffffff811115614f5457614f53613c53565b5b614f5e8254614283565b614f69828285614ea5565b600060209050601f831160018114614f9c5760008415614f8a578287015190505b614f948582614f16565b865550614ffc565b601f198416614faa86614d86565b60005b82811015614fd257848901518255600182019150602085019450602081019050614fad565b86831015614fef5784890151614feb601f891682614ef8565b8355505b6001600288020188555050505b505050505050565b7f55736572206973206e6f74207468652070726f6a656374206f776e65722e0000600082015250565b600061503a601e836138fd565b915061504582615004565b602082019050919050565b600060208201905081810360008301526150698161502d565b9050919050565b7f4e487b7100000000000000000000000000000000000000000000000000000000600052601260045260246000fd5b60006150aa8261384e565b91506150b58361384e565b9250826150c5576150c4615070565b5b828204905092915050565b7f496e73756666696369656e7420766f7465000000000000000000000000000000600082015250565b60006151066011836138fd565b9150615111826150d0565b602082019050919050565b60006020820190508181036000830152615135816150f9565b9050919050565b7f496e73756666696369656e7420616d6f756e74206f662055534420746f20677260008201527f616e740000000000000000000000000000000000000000000000000000000000602082015250565b60006151986023836138fd565b91506151a38261513c565b604082019050919050565b600060208201905081810360008301526151c78161518b565b9050919050565b7f50726f6a656374206d7573742062652066756e6465642e000000000000000000600082015250565b60006152046017836138fd565b915061520f826151ce565b602082019050919050565b60006020820190508181036000830152615233816151f7565b9050919050565b7f496e73756666696369656e742072657365727665642e00000000000000000000600082015250565b60006152706016836138fd565b915061527b8261523a565b602082019050919050565b6000602082019050818103600083015261529f81615263565b9050919050565b60006152b18261384e565b91506152bc8361384e565b92508282039050818111156152d4576152d36142e3565b5b92915050565b7f496e73756666696369656e7420616d6f756e74206f662055534420537461626c60008201527f6520436f696e0000000000000000000000000000000000000000000000000000602082015250565b60006153366026836138fd565b9150615341826152da565b604082019050919050565b6000602082019050818103600083015261536581615329565b9050919050565b7f5573657220676f7420616c726561647920746865206661756365742e00000000600082015250565b60006153a2601c836138fd565b91506153ad8261536c565b602082019050919050565b600060208201905081810360008301526153d181615395565b9050919050565b6000819050919050565b60006153fd6153f86153f3846153d8565b614e0a565b61384e565b9050919050565b61540d816153e2565b82525050565b600060408201905061542860008301856138e3565b6154356020830184615404565b9392505050565b7f54686572652069736e277420656e6f75676820616d6f756e74206f66204d794760008201527f6f76546f6b656e20746f207375626d6974207375727665792e00000000000000602082015250565b60006154986039836138fd565b91506154a38261543c565b604082019050919050565b600060208201905081810360008301526154c78161548b565b9050919050565b7f54686572652069736e277420656e6f75676820616d6f756e74206f662055534460008201527f20746f207375626d6974207375727665792e0000000000000000000000000000602082015250565b600061552a6032836138fd565b9150615535826154ce565b604082019050919050565b600060208201905081810360008301526155598161551d565b9050919050565b600060608201905061557560008301866138e3565b6155826020830185613982565b61558f6040830184613982565b94935050505056fea264697066735822122003c8d09df0040fdcc30cd4e9dd060d237e4746a5adb0c16c69a1b2307098d37c64736f6c63430008140033",
  "linkReferences": {},
  "deployedLinkReferences": {}
}