{
  "_format": "hh-sol-artifact-1",
  "contractName": "USDStableCoin",
  "sourceName": "contracts/USDStableCoin.sol",
  "abi": [
    {
      "inputs": [],
      "stateMutability": "nonpayable",
      "type": "constructor"
    },
    {
      "inputs": [
        {
          "internalType": "address",
          "name": "spender",
          "type": "address"
        },
        {
          "internalType": "uint256",
          "name": "allowance",
          "type": "uint256"
        },
        {
          "internalType": "uint256",
          "name": "needed",
          "type": "uint256"
        }
      ],
      "name": "ERC20InsufficientAllowance",
      "type": "error"
    },
    {
      "inputs": [
        {
          "internalType": "address",
          "name": "sender",
          "type": "address"
        },
        {
          "internalType": "uint256",
          "name": "balance",
          "type": "uint256"
        },
        {
          "internalType": "uint256",
          "name": "needed",
          "type": "uint256"
        }
      ],
      "name": "ERC20InsufficientBalance",
      "type": "error"
    },
    {
      "inputs": [
        {
          "internalType": "address",
          "name": "approver",
          "type": "address"
        }
      ],
      "name": "ERC20InvalidApprover",
      "type": "error"
    },
    {
      "inputs": [
        {
          "internalType": "address",
          "name": "receiver",
          "type": "address"
        }
      ],
      "name": "ERC20InvalidReceiver",
      "type": "error"
    },
    {
      "inputs": [
        {
          "internalType": "address",
          "name": "sender",
          "type": "address"
        }
      ],
      "name": "ERC20InvalidSender",
      "type": "error"
    },
    {
      "inputs": [
        {
          "internalType": "address",
          "name": "spender",
          "type": "address"
        }
      ],
      "name": "ERC20InvalidSpender",
      "type": "error"
    },
    {
      "anonymous": false,
      "inputs": [
        {
          "indexed": true,
          "internalType": "address",
          "name": "owner",
          "type": "address"
        },
        {
          "indexed": true,
          "internalType": "address",
          "name": "spender",
          "type": "address"
        },
        {
          "indexed": false,
          "internalType": "uint256",
          "name": "value",
          "type": "uint256"
        }
      ],
      "name": "Approval",
      "type": "event"
    },
    {
      "anonymous": false,
      "inputs": [
        {
          "indexed": true,
          "internalType": "address",
          "name": "from",
          "type": "address"
        },
        {
          "indexed": true,
          "internalType": "address",
          "name": "to",
          "type": "address"
        },
        {
          "indexed": false,
          "internalType": "uint256",
          "name": "value",
          "type": "uint256"
        }
      ],
      "name": "Transfer",
      "type": "event"
    },
    {
      "inputs": [
        {
          "internalType": "address",
          "name": "owner",
          "type": "address"
        },
        {
          "internalType": "address",
          "name": "spender",
          "type": "address"
        }
      ],
      "name": "allowance",
      "outputs": [
        {
          "internalType": "uint256",
          "name": "",
          "type": "uint256"
        }
      ],
      "stateMutability": "view",
      "type": "function"
    },
    {
      "inputs": [
        {
          "internalType": "address",
          "name": "spender",
          "type": "address"
        },
        {
          "internalType": "uint256",
          "name": "value",
          "type": "uint256"
        }
      ],
      "name": "approve",
      "outputs": [
        {
          "internalType": "bool",
          "name": "",
          "type": "bool"
        }
      ],
      "stateMutability": "nonpayable",
      "type": "function"
    },
    {
      "inputs": [
        {
          "internalType": "address",
          "name": "account",
          "type": "address"
        }
      ],
      "name": "balanceOf",
      "outputs": [
        {
          "internalType": "uint256",
          "name": "",
          "type": "uint256"
        }
      ],
      "stateMutability": "view",
      "type": "function"
    },
    {
      "inputs": [],
      "name": "decimals",
      "outputs": [
        {
          "internalType": "uint8",
          "name": "",
          "type": "uint8"
        }
      ],
      "stateMutability": "view",
      "type": "function"
    },
    {
      "inputs": [],
      "name": "faucet",
      "outputs": [],
      "stateMutability": "nonpayable",
      "type": "function"
    },
    {
      "inputs": [],
      "name": "name",
      "outputs": [
        {
          "internalType": "string",
          "name": "",
          "type": "string"
        }
      ],
      "stateMutability": "view",
      "type": "function"
    },
    {
      "inputs": [],
      "name": "symbol",
      "outputs": [
        {
          "internalType": "string",
          "name": "",
          "type": "string"
        }
      ],
      "stateMutability": "view",
      "type": "function"
    },
    {
      "inputs": [],
      "name": "totalSupply",
      "outputs": [
        {
          "internalType": "uint256",
          "name": "",
          "type": "uint256"
        }
      ],
      "stateMutability": "view",
      "type": "function"
    },
    {
      "inputs": [
        {
          "internalType": "address",
          "name": "to",
          "type": "address"
        },
        {
          "internalType": "uint256",
          "name": "value",
          "type": "uint256"
        }
      ],
      "name": "transfer",
      "outputs": [
        {
          "internalType": "bool",
          "name": "",
          "type": "bool"
        }
      ],
      "stateMutability": "nonpayable",
      "type": "function"
    },
    {
      "inputs": [
        {
          "internalType": "address",
          "name": "from",
          "type": "address"
        },
        {
          "internalType": "address",
          "name": "to",
          "type": "address"
        },
        {
          "internalType": "uint256",
          "name": "value",
          "type": "uint256"
        }
      ],
      "name": "transferFrom",
      "outputs": [
        {
          "internalType": "bool",
          "name": "",
          "type": "bool"
        }
      ],
      "stateMutability": "nonpayable",
      "type": "function"
    }
  ],
  "bytecode": "0x60806040523480156200001157600080fd5b506040518060400160405280600f81526020017f55534420537461626c6520436f696e00000000000000000000000000000000008152506040518060400160405280600581526020017f555344534300000000000000000000000000000000000000000000000000000081525081600390816200008f9190620005f5565b508060049081620000a19190620005f5565b505050620000b830612710620000be60201b60201c565b62000813565b600073ffffffffffffffffffffffffffffffffffffffff168273ffffffffffffffffffffffffffffffffffffffff1603620001335760006040517fec442f050000000000000000000000000000000000000000000000000000000081526004016200012a919062000721565b60405180910390fd5b62000147600083836200014b60201b60201c565b5050565b600073ffffffffffffffffffffffffffffffffffffffff168373ffffffffffffffffffffffffffffffffffffffff1603620001a15780600260008282546200019491906200076d565b9250508190555062000277565b60008060008573ffffffffffffffffffffffffffffffffffffffff1673ffffffffffffffffffffffffffffffffffffffff1681526020019081526020016000205490508181101562000230578381836040517fe450d38c0000000000000000000000000000000000000000000000000000000081526004016200022793929190620007b9565b60405180910390fd5b8181036000808673ffffffffffffffffffffffffffffffffffffffff1673ffffffffffffffffffffffffffffffffffffffff16815260200190815260200160002081905550505b600073ffffffffffffffffffffffffffffffffffffffff168273ffffffffffffffffffffffffffffffffffffffff1603620002c257806002600082825403925050819055506200030f565b806000808473ffffffffffffffffffffffffffffffffffffffff1673ffffffffffffffffffffffffffffffffffffffff168152602001908152602001600020600082825401925050819055505b8173ffffffffffffffffffffffffffffffffffffffff168373ffffffffffffffffffffffffffffffffffffffff167fddf252ad1be2c89b69c2b068fc378daa952ba7f163c4a11628f55a4df523b3ef836040516200036e9190620007f6565b60405180910390a3505050565b600081519050919050565b7f4e487b7100000000000000000000000000000000000000000000000000000000600052604160045260246000fd5b7f4e487b7100000000000000000000000000000000000000000000000000000000600052602260045260246000fd5b60006002820490506001821680620003fd57607f821691505b602082108103620004135762000412620003b5565b5b50919050565b60008190508160005260206000209050919050565b60006020601f8301049050919050565b600082821b905092915050565b6000600883026200047d7fffffffffffffffffffffffffffffffffffffffffffffffffffffffffffffffff826200043e565b6200048986836200043e565b95508019841693508086168417925050509392505050565b6000819050919050565b6000819050919050565b6000620004d6620004d0620004ca84620004a1565b620004ab565b620004a1565b9050919050565b6000819050919050565b620004f283620004b5565b6200050a6200050182620004dd565b8484546200044b565b825550505050565b600090565b6200052162000512565b6200052e818484620004e7565b505050565b5b8181101562000556576200054a60008262000517565b60018101905062000534565b5050565b601f821115620005a5576200056f8162000419565b6200057a846200042e565b810160208510156200058a578190505b620005a262000599856200042e565b83018262000533565b50505b505050565b600082821c905092915050565b6000620005ca60001984600802620005aa565b1980831691505092915050565b6000620005e58383620005b7565b9150826002028217905092915050565b62000600826200037b565b67ffffffffffffffff8111156200061c576200061b62000386565b5b620006288254620003e4565b620006358282856200055a565b600060209050601f8311600181146200066d576000841562000658578287015190505b620006648582620005d7565b865550620006d4565b601f1984166200067d8662000419565b60005b82811015620006a75784890151825560018201915060208501945060208101905062000680565b86831015620006c75784890151620006c3601f891682620005b7565b8355505b6001600288020188555050505b505050505050565b600073ffffffffffffffffffffffffffffffffffffffff82169050919050565b60006200070982620006dc565b9050919050565b6200071b81620006fc565b82525050565b600060208201905062000738600083018462000710565b92915050565b7f4e487b7100000000000000000000000000000000000000000000000000000000600052601160045260246000fd5b60006200077a82620004a1565b91506200078783620004a1565b9250828201905080821115620007a257620007a16200073e565b5b92915050565b620007b381620004a1565b82525050565b6000606082019050620007d0600083018662000710565b620007df6020830185620007a8565b620007ee6040830184620007a8565b949350505050565b60006020820190506200080d6000830184620007a8565b92915050565b610fb380620008236000396000f3fe608060405234801561001057600080fd5b506004361061009e5760003560e01c806370a082311161006657806370a082311461015d57806395d89b411461018d578063a9059cbb146101ab578063dd62ed3e146101db578063de5f72fd1461020b5761009e565b806306fdde03146100a3578063095ea7b3146100c157806318160ddd146100f157806323b872dd1461010f578063313ce5671461013f575b600080fd5b6100ab610215565b6040516100b89190610b40565b60405180910390f35b6100db60048036038101906100d69190610bfb565b6102a7565b6040516100e89190610c56565b60405180910390f35b6100f96102ca565b6040516101069190610c80565b60405180910390f35b61012960048036038101906101249190610c9b565b6102d4565b6040516101369190610c56565b60405180910390f35b610147610303565b6040516101549190610d0a565b60405180910390f35b61017760048036038101906101729190610d25565b61030c565b6040516101849190610c80565b60405180910390f35b610195610354565b6040516101a29190610b40565b60405180910390f35b6101c560048036038101906101c09190610bfb565b6103e6565b6040516101d29190610c56565b60405180910390f35b6101f560048036038101906101f09190610d52565b610409565b6040516102029190610c80565b60405180910390f35b610213610490565b005b60606003805461022490610dc1565b80601f016020809104026020016040519081016040528092919081815260200182805461025090610dc1565b801561029d5780601f106102725761010080835404028352916020019161029d565b820191906000526020600020905b81548152906001019060200180831161028057829003601f168201915b5050505050905090565b6000806102b2610512565b90506102bf81858561051a565b600191505092915050565b6000600254905090565b6000806102df610512565b90506102ec85828561052c565b6102f78585856105c0565b60019150509392505050565b60006012905090565b60008060008373ffffffffffffffffffffffffffffffffffffffff1673ffffffffffffffffffffffffffffffffffffffff168152602001908152602001600020549050919050565b60606004805461036390610dc1565b80601f016020809104026020016040519081016040528092919081815260200182805461038f90610dc1565b80156103dc5780601f106103b1576101008083540402835291602001916103dc565b820191906000526020600020905b8154815290600101906020018083116103bf57829003601f168201915b5050505050905090565b6000806103f1610512565b90506103fe8185856105c0565b600191505092915050565b6000600160008473ffffffffffffffffffffffffffffffffffffffff1673ffffffffffffffffffffffffffffffffffffffff16815260200190815260200160002060008373ffffffffffffffffffffffffffffffffffffffff1673ffffffffffffffffffffffffffffffffffffffff16815260200190815260200160002054905092915050565b3073ffffffffffffffffffffffffffffffffffffffff1663a9059cbb3360016040518363ffffffff1660e01b81526004016104cc929190610e46565b6020604051808303816000875af11580156104eb573d6000803e3d6000fd5b505050506040513d601f19601f8201168201806040525081019061050f9190610e9b565b50565b600033905090565b61052783838360016106b4565b505050565b60006105388484610409565b90507fffffffffffffffffffffffffffffffffffffffffffffffffffffffffffffffff81146105ba57818110156105aa578281836040517ffb8f41b20000000000000000000000000000000000000000000000000000000081526004016105a193929190610ec8565b60405180910390fd5b6105b9848484840360006106b4565b5b50505050565b600073ffffffffffffffffffffffffffffffffffffffff168373ffffffffffffffffffffffffffffffffffffffff16036106325760006040517f96c6fd1e0000000000000000000000000000000000000000000000000000000081526004016106299190610eff565b60405180910390fd5b600073ffffffffffffffffffffffffffffffffffffffff168273ffffffffffffffffffffffffffffffffffffffff16036106a45760006040517fec442f0500000000000000000000000000000000000000000000000000000000815260040161069b9190610eff565b60405180910390fd5b6106af83838361088b565b505050565b600073ffffffffffffffffffffffffffffffffffffffff168473ffffffffffffffffffffffffffffffffffffffff16036107265760006040517fe602df0500000000000000000000000000000000000000000000000000000000815260040161071d9190610eff565b60405180910390fd5b600073ffffffffffffffffffffffffffffffffffffffff168373ffffffffffffffffffffffffffffffffffffffff16036107985760006040517f94280d6200000000000000000000000000000000000000000000000000000000815260040161078f9190610eff565b60405180910390fd5b81600160008673ffffffffffffffffffffffffffffffffffffffff1673ffffffffffffffffffffffffffffffffffffffff16815260200190815260200160002060008573ffffffffffffffffffffffffffffffffffffffff1673ffffffffffffffffffffffffffffffffffffffff168152602001908152602001600020819055508015610885578273ffffffffffffffffffffffffffffffffffffffff168473ffffffffffffffffffffffffffffffffffffffff167f8c5be1e5ebec7d5bd14f71427d1e84f3dd0314c0f7b2291e5b200ac8c7c3b9258460405161087c9190610c80565b60405180910390a35b50505050565b600073ffffffffffffffffffffffffffffffffffffffff168373ffffffffffffffffffffffffffffffffffffffff16036108dd5780600260008282546108d19190610f49565b925050819055506109b0565b60008060008573ffffffffffffffffffffffffffffffffffffffff1673ffffffffffffffffffffffffffffffffffffffff16815260200190815260200160002054905081811015610969578381836040517fe450d38c00000000000000000000000000000000000000000000000000000000815260040161096093929190610ec8565b60405180910390fd5b8181036000808673ffffffffffffffffffffffffffffffffffffffff1673ffffffffffffffffffffffffffffffffffffffff16815260200190815260200160002081905550505b600073ffffffffffffffffffffffffffffffffffffffff168273ffffffffffffffffffffffffffffffffffffffff16036109f95780600260008282540392505081905550610a46565b806000808473ffffffffffffffffffffffffffffffffffffffff1673ffffffffffffffffffffffffffffffffffffffff168152602001908152602001600020600082825401925050819055505b8173ffffffffffffffffffffffffffffffffffffffff168373ffffffffffffffffffffffffffffffffffffffff167fddf252ad1be2c89b69c2b068fc378daa952ba7f163c4a11628f55a4df523b3ef83604051610aa39190610c80565b60405180910390a3505050565b600081519050919050565b600082825260208201905092915050565b60005b83811015610aea578082015181840152602081019050610acf565b60008484015250505050565b6000601f19601f8301169050919050565b6000610b1282610ab0565b610b1c8185610abb565b9350610b2c818560208601610acc565b610b3581610af6565b840191505092915050565b60006020820190508181036000830152610b5a8184610b07565b905092915050565b600080fd5b600073ffffffffffffffffffffffffffffffffffffffff82169050919050565b6000610b9282610b67565b9050919050565b610ba281610b87565b8114610bad57600080fd5b50565b600081359050610bbf81610b99565b92915050565b6000819050919050565b610bd881610bc5565b8114610be357600080fd5b50565b600081359050610bf581610bcf565b92915050565b60008060408385031215610c1257610c11610b62565b5b6000610c2085828601610bb0565b9250506020610c3185828601610be6565b9150509250929050565b60008115159050919050565b610c5081610c3b565b82525050565b6000602082019050610c6b6000830184610c47565b92915050565b610c7a81610bc5565b82525050565b6000602082019050610c956000830184610c71565b92915050565b600080600060608486031215610cb457610cb3610b62565b5b6000610cc286828701610bb0565b9350506020610cd386828701610bb0565b9250506040610ce486828701610be6565b9150509250925092565b600060ff82169050919050565b610d0481610cee565b82525050565b6000602082019050610d1f6000830184610cfb565b92915050565b600060208284031215610d3b57610d3a610b62565b5b6000610d4984828501610bb0565b91505092915050565b60008060408385031215610d6957610d68610b62565b5b6000610d7785828601610bb0565b9250506020610d8885828601610bb0565b9150509250929050565b7f4e487b7100000000000000000000000000000000000000000000000000000000600052602260045260246000fd5b60006002820490506001821680610dd957607f821691505b602082108103610dec57610deb610d92565b5b50919050565b610dfb81610b87565b82525050565b6000819050919050565b6000819050919050565b6000610e30610e2b610e2684610e01565b610e0b565b610bc5565b9050919050565b610e4081610e15565b82525050565b6000604082019050610e5b6000830185610df2565b610e686020830184610e37565b9392505050565b610e7881610c3b565b8114610e8357600080fd5b50565b600081519050610e9581610e6f565b92915050565b600060208284031215610eb157610eb0610b62565b5b6000610ebf84828501610e86565b91505092915050565b6000606082019050610edd6000830186610df2565b610eea6020830185610c71565b610ef76040830184610c71565b949350505050565b6000602082019050610f146000830184610df2565b92915050565b7f4e487b7100000000000000000000000000000000000000000000000000000000600052601160045260246000fd5b6000610f5482610bc5565b9150610f5f83610bc5565b9250828201905080821115610f7757610f76610f1a565b5b9291505056fea264697066735822122043bf691723a4bb1250afdcaa2a1700606ed99b0ec42f58cc89b53d4a58712ba264736f6c63430008140033",
  "linkReferences": {},
  "deployedLinkReferences": {}
}